:100000000C941A030C9437030C9437030C943703A5
:100010000C9437030C9437030C9437030C94370378
:100020000C9437030C9437030C94F71F0C94CF20D7
:100030000C94AC1F0C9437030C9437030C943703C7
:100040000C9437030C9437030C9437030C94370348
:100050000C9437030C94D31F0C9437030C94370380
:100060000C9437030C9437030C9437030C94370328
:100070000C9437030C9437030C9437030C94370318
:100080000C9437030C9437030C9437030C94370308
:100090000C9437030C9437030C9437030C943703F8
:1000A0000C9437030C9437030C9437030501098033
:1000B000A101850319012AB700150126B700950192
:1000C00075108100C0050C0901A101850419012AE0
:1000D000A002150126A002950175108100C00660DE
:1000E000FF0961A1010962150026FF00952075082E
:1000F00081020963150026FF00952075089102C052
:1001000005010906A101050719E029E715002501E8
:10011000950875018102950175088101050719008F
:1001200029FF150026FF00950675088100050819AE
:1001300001290515002501950575019102950175A7
:10014000039101C0060200FFFF000100FFFFFF0056
:1001500000000009025B00030100A0320904000056
:1001600001030101000921110100012244000705DA
:1001700081030800030904010002030000000921B3
:10018000110100012222000705820320000107055A
:1001900003032000010904020001030000000921FB
:1001A000110100012232000705840320000312011F
:1001B0000002000000086D7302000101010200014D
:1001C00012034E0061006E00670067006F006E0052
:1001D000670000000C03530061006E006D006100B9
:1001E00000000403090429001E001F002000210054
:1001F0002200230024002500260027002D002E00C9
:100200002B0014001A000800150017001C0018002D
:100210000C00120013002F003000390004001600FB
:10022000070009000A000B000D000E000F0033004C
:1002300034002800E1001D001B0006001900050025
:100240001100100036003700380052004C00E0006A
:10025000E3000000E200215200002C002A003100DF
:100260002A00500051004F0035023A003B003C008C
:100270003D003E003F00400041004200430044007A
:100280004500010001000100010001000100010022
:100290000100010001000100010001000100010056
:1002A0000100010001000100010001000100010046
:1002B00001000100AE000100010001000100010089
:1002C000010001000100010001000100A900AD00D2
:1002D00001000100000001000100000001002252A5
:1002E00001000100AC00AA00AB00007C010001008D
:1002F00001000100010001000100010001000100F6
:10030000010001002078237825782778010001007A
:10031000010001000100010001000100010021783D
:1003200024782678287801000100010001000100EE
:1003300001000100010001000100010001000100B5
:1003400001000100010001000100010001000100A5
:100350000100010001000000010001000000010097
:1003600001000100010001000100010022232526F7
:1003700028292A2C2D2F3032333536383A3B3D3E52
:100380004042434547494A4C4E5051535557595A9C
:100390005C5E6062646668696B6D6F7173757779B6
:1003A0007B7D7F81838587898A8C8E9092949698B5
:1003B0009A9C9E9FA1A3A5A7A8AAACAEAFB1B3B4C7
:1003C000B6B8B9BBBCBEBFC1C2C3C5C6C7C9CACB1C
:1003D000CCCDCED0D1D2D2D3D4D5D6D7D7D8D9D9E7
:1003E000DADADBDBDBDCDCDCDCDCDDDDDDDDDCDC50
:1003F000DCDCDCDBDBDBDADAD9D9D8D7D7D6D5D46D
:10040000D3D2D2D1D0CECDCCCBCAC9C7C6C5C3C238
:10041000C1BFBEBCBBB9B8B6B4B3B1AFAEACAAA88D
:10042000A7A5A3A19F9E9C9A98969492908E8C8A41
:1004300089878583817F7D7B79777573716F6D6B1C
:100440006968666462605E5C5A5957555351504EF4
:100450004C4A4947454342403E3D3B3A38363533A6
:1004600032302F2D2C2A292826252322FFAA7F551A
:100470004000010101010101010101020202020229
:10048000020202020303030303030303040404043C
:100490000404040505050505060606060607070704
:1004A000070708080808090909090A0A0A0B0B0BBB
:1004B0000C0C0C0D0D0D0E0E0E0F0F0F1010111158
:1004C00011121213131414151516161717181819DC
:1004D000191A1A1B1B1C1D1D1E1E1F202021222243
:1004E000232424252626272829292A2B2C2D2D2E86
:1004F0002F30313232333435363738393A3B3C3DA0
:100500003E3F404142434445464748494A4C4D4E90
:100510004F50515354555658595A5B5D5E5F616256
:1005200064656668696B6C6D6F7072737577787AE5
:100530007B7D7E8082838587888A8C8E8F91939540
:1005400096989A9C9EA0A2A3A5A7A9ABADAFB1B364
:10055000B5B7BABCBEC0C2C4C6C9CBCDCFD1D4D644
:10056000D8DBDDDFE2E4E7E9EBEEF0F3F5F8FAFDE6
:10057000FF4401000000047F3F1F643214783C1EDA
:100580001E140A050000000000000000000000002A
:10059000000000000000000000000000000000005B
:1005A00000000000000000007E0F00D4FFFFFFC726
:1005B0000000007800000000000000002A2B280046
:1005C0000000000000000000000000000000002902
:1005D000000000002C1E3420212224342627252E42
:1005E000362D3738271E1F2021222324252633337A
:1005F000362E37381F0405060708090A0B0C0D0EA6
:100600000F101112131415161718191A1B1C1D2F71
:100610003130232D350405060708090A0B0C0D0E91
:100620000F101112131415161718191A1B1C1D2F51
:100630003130354C11241FBECFEFDAE0DEBFCDBF25
:1006400011E0A0E0B1E0E4E2F5E402C005900D9213
:10065000AC38B107D9F722E0ACE8B1E001C01D9297
:10066000AC37B207E1F70E94981A0C9435220C942B
:10067000000090917B0281FF07C0916090937B0204
:1006800081E08093780208959E7FF8CF80933402B2
:10069000089580933502089521E030E001C0220FD3
:1006A0008A95EAF780913502822B0E9449030895CA
:1006B00021E030E0A90102C0440F551F8A95E2F7FE
:1006C000CA0180959091350289230E9449030895BB
:1006D000292F953098F58D3088F590E03DE0239FE7
:1006E000800D911D1124282F277041E001C0440F77
:1006F0002A95EAF723E0969587952A95E1F7FC017C
:10070000EE0FFF1FE80FF91FE45FFD4F20E030E020
:1007100070E05191DF011197CB01022E02C0969536
:1007200087950A94E2F78170819585278423852730
:100730008C932F5F3F4F2330310559F70895292FB0
:10074000953078F58D3068F590E03DE0239F800D81
:10075000911D1124682F677023E0969587952A953F
:10076000E1F7FC01EE0FFF1FE80FF91FE45FFD4FFB
:1007700040E050E080E0219130E0062E02C0369546
:1007800027950A94E2F721703327042E01C0220F27
:100790000A94EAF7822B4F5F5F4F4330510559F7B8
:1007A000089580E008959091350221E030E0F9014C
:1007B00001C0EE0F8A95EAF7D90102C0AA0FBB1F4C
:1007C0006A95E2F7EA2B01C0220F4A95EAF7892FD2
:1007D0008E23E81305C0892F822B0E9449030895B8
:1007E0002095822F8923F9CF80913802909137028A
:1007F000981301C008958F5F8770FACF803E9105EE
:10080000D1F1C8F48133910509F47FC048F48932ED
:10081000910509F46FC08A32910509F47DC00895ED
:1008200089339105E1F082389105C9F0853391054E
:1008300009F45BC00895843E9105D1F148F4823EED
:10084000910531F1833E910541F181EE90E00895EB
:10085000863E9105C1F1873E9105E1F10895209111
:1008600028022370211165C02091290223FF14C0A2
:1008700089E290E008952091280220FD43C0309144
:10088000290230FF09C024FF4EC080E090E00895A7
:100890002091280222FDF7CF08952091280222FD01
:1008A00045C03091290230FD44C024FFF5CFEDCF83
:1008B0002091290221FFF0CF8091280284FDE5CF0D
:1008C00087EE90E008952091280223FFE5CF24FDD4
:1008D000DCCFF6CF2091280223FD2EC030912902D3
:1008E00031FFE3CF84EE90E008952091280225FFA8
:1008F000D3CFBECF2091280225FD21C0209129020F
:1009000023FFCACF89E390E008952091280226FFB3
:10091000C3CF8AE290E008952091280226FFBCCF41
:1009200081E390E0089583EE90E0089582EE90E0F8
:10093000089580EE90E0089586EE90E0089585E3B6
:1009400090E0AACF9091280292FF10C041E0282F9A
:100950002471243009F040E031E0282F287128303C
:1009600009F030E0431711F02CE0822793FF10C00C
:1009700041E0282F2471243109F040E031E0282F94
:100980002871283109F030E0431711F02CE082275C
:100990003091290230FF10C051E0282F2171213001
:1009A00009F050E041E0282F2871283009F040E09C
:1009B000541711F029E0822731FF10C041E0282FA1
:1009C0002171213109F040E031E0282F28712831D0
:1009D00009F030E0431711F029E0822794FD877E6B
:1009E00008951F93CF93DF930E94FE03EC018115BE
:1009F00020E5920708F048C0811540E4940708F00C
:100A0000C2C0803E9105E0F0811550E2950798F153
:100A10008D2F8F710E94A204182FCE0199270E945A
:100A2000FE03212F30E0322F222722273F71282B6F
:100A3000392BE901D062CE01DF91CF911F9108954A
:100A40008D3C910508F08BC0883A910560F4853A99
:100A5000910508F076C08130910569F30497813AD9
:100A6000910548F305C0885A91094B9708F46CC06A
:100A7000C0E0D0E0E0CF8F3F910511F008F071C0E9
:100A8000805E91090797EDCFC03682E5D80738F52B
:100A9000C03422E5D20708F093C0C03242E5D40743
:100AA00038F0CF71D0E0DC2FCC27C16FD06AC3CF34
:100AB0008C2FC11552E5D50708F06EC08F710E94CA
:100AC000A204282F30E084FD9CC085E0D695C79510
:100AD0008A95E1F7CF703C2BE901D069ACCFC03CDF
:100AE00082E5D80708F5C03A22E5D20708F07EC0B3
:100AF000CE0180569245809708F0BACF8C2F86950C
:100B00008695877050E2859FC0011124C37021E053
:100B100030E0A90102C0440F551FCA95E2F7EA016F
:100B2000C82BD92BDA6887CFCE01805C924580979D
:100B300008F09ECFDC2FCC27CC27DF71C06FD06AA6
:100B40007ACFA497D06477CFC85AD0E0CC0FDD1FFE
:100B5000CA5ADE4F0990D881C02DD4646CCFD065BD
:100B60006ACF8D2F0E94A204182FCE0199270E94D0
:100B7000FE03212F30E0322F2227E901CC27DF713D
:100B8000C82BD92B58CF99270E94FE03CC27DF70A2
:100B9000C82BD92BD06A4FCF8695869540E2849F8B
:100BA000C0011124C37021E030E0A90102C0440F4C
:100BB000551FCA95E2F7EA01C82BD92BDD683BCF58
:100BC0008C2F86958695877050E2859FC0011124F1
:100BD000C37021E030E0A90102C0440F551FCA953F
:100BE000E2F7EA01C82BD92BDC6825CF8C2F8F7157
:100BF0000E94A204C82FD0E0DC2FCC27CC27DF71C5
:100C00001ACF94E0220F331F9A95E1F75ECF80E070
:100C10000895F894E82FE295EF70F0E041A18F700D
:100C200021E030E0B90102C0660F771F8A95E2F734
:100C3000CB01962F9095942391A392A1892B82A307
:100C4000789408950895A0E0B0E0E9E2F6E00C940D
:100C50005521E901E42FF0E0EF58FB4F61110BC083
:100C6000E4919E2F8E2F8983E8839A83CDB7DEB7D8
:100C7000EAE00C947121282F30E0062F10E0F49167
:100C8000EF2F86E0829F6001839FD00C1124EE2419
:100C9000EA94F12CC601B7010E941821220F331FDC
:100CA00045E5469FC001479F900D1124281B390B35
:100CB000822F880F280FC701801B910BF89FA0017E
:100CC000F99F500D1124952F209F5001219FB00CAA
:100CD0001124AB2CBB24D701AA19BB095D01FA9DD5
:100CE000D001FB9DB00D11248B2F5701A21AB10822
:100CF0009501209F5001219FB00C309FB00C112412
:100D0000AB2CBB24EA18FB08FE9D9001FF9D300D23
:100D1000112463307105C9F01CEFC11613E0D10630
:100D200050F46130710509F49ECF6230710589F08D
:100D30008E2FE32F98CF6430710571F06630710506
:100D4000B9F3E52F9B2F8F2F8ECFEB2F852F9F2F62
:100D50008ACF852F932F87CF832FE52FF8CF8091D0
:100D60002B02843028F48370846080932B020895D2
:100D70008437E8F383708067F8CFFA01882311F095
:100D800009950895FB01FCCFE0910202F091030266
:100D9000309729F00190F081E02D0995089580E0C9
:100DA0000895A3E0B0E0E7EDF6E00C945D219C012E
:100DB0008091B6019091B70182179307A1F030930B
:100DC000B7012093B601E0910202F091030230973F
:100DD00051F083E089833B832A830084F185E02DF1
:100DE000CE01019609952396E2E00C947921A3E0C7
:100DF000B0E0EDEFF6E00C945D219C018091B40130
:100E00009091B50182179307A1F03093B50120931B
:100E1000B401E0910202F0910302309751F084E0B6
:100E200089833B832A830084F185E02DCE010196DE
:100E300009952396E2E00C947921A0E9B1E0EFEF67
:100E400090E02D91821751F0EF3F19F4211101C06C
:100E5000E92F9F5F9630A9F7EF3F09F408950E2E12
:100E6000000CFF0BE257FE4F82830895E0E9F1E0AA
:100E70009191891303C0DF0111971C9291E0E6392B
:100E8000F907B1F708952FB7F8948091B0019091C8
:100E9000B101A091B201B091B3012FBF0895A4E0B8
:100EA000B0E0E5E5F7E00C945D218FB7F894209170
:100EB000B0013091B1014091B2015091B301298349
:100EC0003A834B835C838FBF69817A818B819C815C
:100ED0002496E2E00C94792187E797E79093010844
:100EE0008093000888E19AE00FB6F894A895809363
:100EF00060000FBE90936000FFCF8091AF01089516
:100F000008950895FC019B018091A5019091A6018F
:100F10008617970740F0672B29F48091E8008E77B9
:100F20008093E800C90140E0009741F4411106C0F8
:100F30008091E80082FF2FC080E008952091FF019A
:100F40002223A9F12530A9F12091E80023FD2DC02D
:100F50002091E80022FDECCF2091E80020FFE4CFB3
:100F60003091F3002091F200009719F028303105FC
:100F700058F041E02830310509F040E02091E800C8
:100F80002E772093E800D0CF41914093F100019754
:100F90002F5F3F4FE9CF8091FF01882341F08530DB
:100FA00041F08091E80083FFC3CF81E0089582E0A3
:100FB000089583E0089580919F0187FF13C0809179
:100FC000E80082FF06C08091E8008B778093E800FC
:100FD00004C08091FF018111F2CF08958091FF013B
:100FE0008823D9F38091E80080FFF8CF8091E80052
:100FF0008E77ECCF2091E4003091E50095E6A901D1
:101000008091EC008170882331F08091E80080FFAE
:1010100006C080E008952091E80022FD1BC0809169
:10102000FF01882391F0853091F08091EB0085FDE0
:1010300010C02091E4003091E5004217530701F3FE
:1010400091509111DCCF84E0089582E0089583E00F
:10105000089581E00895E8EDF0E080818E7F80833F
:101060001092E2001092DA001092E100A0EEB0E0DF
:101070008C9181608C9380818F77808319BCA7EDE0
:10108000B0E08C918E7F8C9380818F7E80831092D4
:101090009E010895982FE42FE2709093E900891340
:1010A00008C0762F242F50E0E11111C091E0980F75
:1010B000F4CF7091EC002091ED005091F00021FDF3
:1010C00006C09F5F973049F78093E90008953091FB
:1010D000EB003E7F3093EB003091ED003D7F30938D
:1010E000ED003091EB0031603093EB007093EC0039
:1010F0002093ED005093F0002091EE0027FDE1CF0A
:101100000895A0E0B0E0E7E8F8E00C945721C8EDBE
:10111000D0E088818F7E8883E7EDF0E08081816078
:10112000808384E082BF81E080939E0188818E7FEE
:10113000888302EE10E0F80110821092DA0081EE4E
:10114000C82ED12CF601108288818F778883888100
:101150008068888388818F7D888319BC1092FF0105
:1011600010929D011092E20110929C0190EEE92EE6
:10117000F12CF70180818B7F808388818160888357
:1011800042E060E080E00E944A08F60180818E7FA4
:101190008083F80180818160808380818860808382
:1011A000F70180818E7F8083888180618883CDB7BD
:1011B000DEB7E8E00C947321E09138029091370299
:1011C00027E0E91302C080E00895AE2FB0E02E9F23
:1011D000F0011124E75CFD4F3181361306C03081E8
:1011E000381303C03581341304C0FD013196E77014
:1011F000E8CF81E008959C01AB01849A61B36F7ED2
:1012000071B37061EFB7F894CA01880F991F840F0A
:10121000951F820F931F8217930741F4EFBF8FE54D
:1012200094E00197F1F700C000000895D9014D91B5
:101230009D0158E071BB000000C047FF61BB440F37
:10124000000000C000C000C061BB00C05A9591F70B
:10125000E2CF0F931F93CF93DF93EB018A0190911D
:10126000FF01943079F58093E9008FEF9091E800C9
:1012700095FD07C095ED9A95F1F700008150811119
:10128000F5CF8091E80085FF1DC00E94FA0781110B
:1012900014C08091E80085FD06C08091E8008E773B
:1012A0008093E800F2CF88818093F100015011090A
:1012B0000115110511F02196ECCF8091E8008E7791
:1012C0008093E800DF91CF911F910F910895CF9304
:1012D000DF93D82FC92F48E050E0682F792F81E0A5
:1012E0000E94290988E0ED2FFC2FA7EAB1E00190C8
:1012F0000D928A95E1F7DF91CF910895BC0143E00B
:1013000050E084E00E94290908951F93CF93DF9352
:10131000962F122F632F8430D8F49530C8F44D30B7
:10132000B8F4C42FD0E0CC0FDD1F2AE1929FC00D8E
:10133000D11D112492E8899FC00DD11D1124CE0129
:1013400089960E940122612FCE018A960E94012275
:10135000DF91CF911F910895AF92BF92CF92DF920C
:10136000FF920F931F93CF93DF93A12CB12CC0E07A
:101370006501D0E019C021E030E0C33021F0F80170
:10138000859194919C014F2D6D2F8C2F0E94850982
:10139000F3940E5F1F4F8DE0F812EDCFDF5F8DE00D
:1013A000C80ED11CD53039F08601000F111F0A512B
:1013B0001E4FF12CE0CFCF5F81E4A80EB11CC430EA
:1013C000B9F6DF91CF911F910F91FF90DF90CF90F1
:1013D000BF90AF900895CF93DF93C1E3D2E060E078
:1013E000CE010E9401222196C11584E0D807B9F7E9
:1013F000DF91CF910895882381F064E285E290E047
:101400000E94012263E086E290E00E94012262E1F4
:1014100087E290E00E94012208956FEF85E290E05C
:101420000E9401226FEF86E290E00E9401226FEF9E
:10143000EFCF80E00E94FB0960E088E290E00E942C
:1014400001220E94AC090E94EB0981E00E94FB0985
:1014500008950F931F93CF93DF93843030F5653059
:1014600020F54D3010F5C42FD0E0CC0FDD1F2AE160
:10147000629FC00DD11D112432E8839FC00DD11D84
:101480001124CE0189960E94DD21082F10E0102F33
:101490000027CE018A960E94DD219801282BC901E0
:1014A000DF91CF911F910F91089580E090E0F8CFE8
:1014B000462F672F753038F44D3028F4843018F4F7
:1014C0000E94290A089580E090E00895A0E0B0E02D
:1014D000ECE6FAE00C9458217C01009135028091F1
:1014E0003402082BC3E0D0E010E0C8010C2E02C08B
:1014F000959587950A94E2F780FD09C02197A8F792
:10150000D12C8D2DCDB7DEB7E7E00C947421DC2E05
:10151000B7018C2F0E94580A0E94F104019771F3C1
:10152000F0CF0F931F93CF93FC0185810081118130
:10153000882391F0662381F0C8010E94660AC82FB3
:10154000682FC8010E946803B8018C2F0E94580AB6
:10155000CF911F910F910895C8010E949F03C82F3A
:10156000F3CFCF93DF93D82FC92F0E94660A6D2F38
:101570007C2F0E94580A0E94F104DF91CF910895B8
:10158000FC0184818823A1F0808191810E94B10AAD
:10159000282F92959F70963091F060F4925F9F7023
:1015A000923030F481E0203F79F030F4283E30F082
:1015B00080E004C09A5FF3CF243FD1F7089581E023
:1015C000283E18F0213FF9CF0895089585E290E074
:1015D0000E94DD21843289F486E290E00E94DD21C0
:1015E000833059F487E290E00E94DD2191E082315E
:1015F00009F090E0892F8170089580E0FCCF809100
:10160000330290913602892B80938E0148E050E09E
:1016100064E072E08EE891E00E94D021892BA9F06D
:1016200088E0EEE8F1E0A4E0B2E001900D928A9546
:10163000E1F7E0910202F0910302309731F002806D
:10164000F381E02D8EE891E0099508951092330220
:10165000E0E9F1E086E0DF011D928A95E9F780E09C
:1016600090E00E94D10680E090E00E94F706109280
:1016700036020E94FF0A08950E94260B2FEF84E392
:101680009CE0215080409040E1F700C0000088E1DC
:101690009AE00FB6F894A895809360000FBE9093DF
:1016A0006000FFCFAAE2B0E0E8E5FBE00C945C212B
:1016B0008FE991E0FC0101962091F100208321E067
:1016C000873A9207B9F78091A001893009F456C092
:1016D000C8F4823009F4B3C0833009F482C0813089
:1016E00071F18091E80083FFE7C080919F019091A4
:1016F000A0019A3008F0E0C0E92FF0E0E95CFD4D70
:101700000C9440218A3009F489C08B3051F78091C4
:101710009F01813231F78091A3019091A401892B1F
:1017200001F78091E800877F8093E8000E94DB0743
:101730008091A101809300010E94260BD2CF80915D
:101740009F01813A71F68091E800877F8093E800DD
:101750008091A3019091A401892B61F060E080E069
:1017600090E070E00E9482078091E8008B77809380
:10177000E800B7CF68E087EA91E0F3CF80919F015E
:10178000813209F0AECF8091A3019091A4018D7FA9
:10179000892B09F0A6CF8091E800877F8093E8002D
:1017A0008091E80082FF18C09091F3008091F200D0
:1017B000029731F48091F100813011F0863021F4EC
:1017C0008091F1008093AF018091E8008B77809346
:1017D000E8000E94DB0785CF8091FF018111E0CFF7
:1017E00080CF80919F01813A09F07BCF8091A30146
:1017F0009091A401892B09F074CF8091E800877F34
:101800008093E8008091E80080FFFCCF8091000188
:101810008093F1008091E8008E77D9CF80919F016D
:10182000813209F05ECF8091E800877F8093E800E5
:101830000E94DB078091A20180939B0152CF80918F
:101840009F01813A09F04DCF8091E800877F809316
:10185000E8008091E80080FFFCCF80919B01D8CF09
:10186000803889F0823841F58091A3018F708730EC
:1018700018F58093E9008091EB0085FB882780F9BB
:101880001092E90006C080919C019091E2019111B3
:1018900082609091E800977F9093E8008093F10038
:1018A0001092F1008091E8008E7723C0811116C05C
:1018B0008091A101813011F18091E80083FF0AC07D
:1018C0008091E800877F8093E8008091EB00806240
:1018D0008093EB00AA96E3E00C947821823061F7C4
:1018E0008091A101882389F01092E9008091E8009D
:1018F000877F8093E8000E94DB07DECF81E0933092
:1019000009F080E08093E201EFCF8091A3018F7016
:101910002FEF280F263080F68093E9002091EB000E
:1019200020FFE2CF933031F48091EB00806280930E
:10193000EB00DACF9091EB0090619093EB0021E007
:1019400030E0A90102C0440F551F8A95E2F7409389
:10195000EA001092EA008091EB008860E8CF8111E4
:10196000ABCF1091A1011F778091E3008078812B8C
:101970008093E3008091E800877F8093E8000E94D5
:10198000DB078091E80080FFFCCF8091E300806856
:101990008093E30083E0111101C082E08093FF0196
:1019A0008BCF8058823008F087CF4091A1015091B1
:1019B000A2014C3D83E0580799F583E08A838AE2CF
:1019C00089834FB7F894DE01139620E03EE051E2A0
:1019D000E32FF0E050935700849120FF03C08295DD
:1019E0008F703F5F8F708A30C8F0895C90E08D9374
:1019F0009D932F5F243161F74FBF8091E800877F6F
:101A00008093E8006AE270E0CE0101960E948207AE
:101A10008091E8008B778093E8004ECF805DE6CF21
:101A20008091A3019091A401252F33272330310504
:101A300009F44AC078F52130310509F479C08BE505
:101A400090E0E3E5F1E02230310509F035CF209157
:101A5000E800277F2093E8002091A5013091A6019E
:101A60008217930708F49C0140E02115310509F025
:101A700064C0411162C08091E80082FDC9CF8091AD
:101A8000FF01882329F2853019F28091E80083FF55
:101A9000F2CFBECF2132310509F43BC022323105ED
:101AA00009F00ACF8330910508F006CFFC01EE0F54
:101AB000FF1FE55EFE4F0190F081E02D885E9E4F96
:101AC000DC018C9190E011C0CA019927413089F066
:101AD00082309105B1F0892B09F0EECEE2EEF1E013
:101AE000E4918E2F90E0E2EEF1E0009709F4E4CE6D
:101AF000AECFE4EDF1E0E4918E2F90E0E4EDF1E083
:101B0000F4CFE0ECF1E0E4918E2F90E0E0ECF1E036
:101B1000ECCF8330910508F0CFCEFC01EE0FFF1F14
:101B2000EF5DFE4F0190F081E02D89E090E08FCFD6
:101B300082E190E0EEEAF1E08ACF8091FF01882314
:101B400009F466CF853009F463CF8091E80083FD06
:101B50005FCF8091E80082FD8ECF8091E80080FF0A
:101B600084CF9091F3008091F2002115310519F096
:101B70008830910550F041E0089709F040E08091ED
:101B8000E8008E778093E80070CF44914093F10095
:101B90003196215031090196E8CF803809F08CCE7A
:101BA0008091E800877F8093E80080919D01809379
:101BB000F10078CE811180CE1091A101123008F091
:101BC0007BCE8091E800877F8093E80010939D0191
:101BD0000E94DB071123D1F084E08093FF0142E0F3
:101BE00061EC81E00E944A0842E261EC84E00E94DC
:101BF0004A0842E261EC82E00E944A0842E260EC5C
:101C000083E00E944A088091FF0156CE8091E30054
:101C100087FDE2CF81E0E1CFCF93C82F8823C9F0C1
:101C20008238C9F40E94C40681FD13C089E30E9472
:101C30001D070E94FF0A2FEF37EE83E0215030404E
:101C40008040E1F700C0000089E30E9436070E944F
:101C5000FF0ACF9108958338A1F40E94C40680FD45
:101C6000F8CF83E50E941D070E94FF0A9FEF21EE37
:101C700034E0915020403040E1F700C0000083E59F
:101C8000E4CF8438A1F40E94C40682FDE2CF87E449
:101C90000E941D070E94FF0A8FEF91EE24E0815001
:101CA00090402040E1F700C0000087E4CECF8CEFE9
:101CB0008C0F813A70F4E0E9F1E086E991E021913E
:101CC000C21791F18E179F07D1F78C2F0E941D0725
:101CD000BECF80E28C0F883068F4C77021E030E01E
:101CE00001C0220FCA95EAF780913302822B8093BC
:101CF0003302ADCF8BE58C0F833038F42C2F245278
:101D0000330BC9010E94D106A4CFC85ACB3108F0C9
:101D1000A0CFEC2FF0E0EE0FFF1FEA5AFE4F8081BC
:101D200091810E94F70695CF8C2F0E9436070E9462
:101D3000FF0ACBCF882309F454C0823879F40E947B
:101D4000C40681FF4EC089E30E941D070E94FF0A5E
:101D500089E30E9436070E94FF0A0895833859F4E8
:101D60000E94C40680FF3DC083E50E941D070E94BB
:101D7000FF0A83E5EECF843859F40E94C40682FF3F
:101D800030C087E40E941D070E94FF0A87E4E1CF6C
:101D90009CEF980F913AE8F290E2980F983088F40F
:101DA000877021E030E0A90102C0440F551F8A95D9
:101DB000E2F7CA0180959091330289238093330220
:101DC000CACF9BE5980F933028F480E090E00E9402
:101DD000D1060895885A8B3120F480E090E00E946B
:101DE000F70608951F93CF93DF93182FEB010E94FE
:101DF0000C0E209739F4812F0E949A0EDF91CF911B
:101E00001F9108958FE99FE00197F1F700C000004E
:101E10002197EFCF882339F090913302892B80935B
:101E200033020E94FF0A0895882341F08095909123
:101E300033028923809333020E94FF0A08950F938F
:101E40001F93CF93DF93C62FD42F122F8823A9F08F
:101E5000609327020E94430790939A01809399010F
:101E6000C77081E001C0880FCA95EAF70E940A0F87
:101E7000DF91CF911F910F910895809127026813F0
:101E800041C02091990130919A014FB7F894809107
:101E9000B0019091B101A091B201B091B3014FBFD7
:101EA000821B930B883C910568F56D130EC060E0B2
:101EB00070E0812F0E94F20ED77081E001C0880F80
:101EC000DA95EAF70E94140FD3CFC77001E0802F94
:101ED00001C0880FCA95EAF70E94140F80E28D0FA7
:101EE000883050F48D2F877001C0000F8A95EAF773
:101EF000802F0E940A0FDBCF60E070E0812F0E94EC
:101F0000F20EB6CFC77081E001C0880FCA95EAF71C
:101F1000D9CFA0E0B0E0EFE8FFE00C9457218901B1
:101F2000D42FC52F6B017C010E94AF06A8016D2F35
:101F30007C2F88E090E00E94132298014D2F5C2FA7
:101F4000B601C70100E20E949F21622F84E290E067
:101F50000E940122CDB7DEB7E8E00C947321809196
:101F60002F02833018F48F5F80932F0220912B0271
:101F700030912C0240912D0250912E0260912F023F
:101F80007091300280913102909132020E94890F4B
:101F9000089580912F02882319F0815080932F0299
:101FA00020912B0230912C0240912D0250912E0253
:101FB00060912F0270913002809131029091320233
:101FC0000E94890F089560912B026695669570E0D6
:101FD0004BE050E083E091E00E94C321892B19F48B
:101FE00081E080937A020E9443079093EF018093EF
:101FF000EE010895A5E0B0E0E0E0F0E10C9451219D
:1020000080912B0280FD0AC0EAEBF1E01182108280
:102010001282339621E0E23DF207C1F78090DD01A4
:102020009090DE018114910409F459C080FF57C0DB
:10203000A12CB12C66246394712C80917B029301B6
:102040000A2C01C0220F0A94EAF78223882309F49C
:102050003BC0F401E590F490E114F10409F43FC0B1
:1020600045E050E0B701CE0101960E94BA21898176
:102070008F3F51F12A8190E0280F392F311D2930EF
:10208000310514F028E030E06901CC0CDD1CC20EF3
:10209000D31E960126543E4F69018C01000F111F7B
:1020A000080F191F06541E4F0C151D0520F035E0B2
:1020B000E30EF11CD5CF98014D816C818B810E947C
:1020C00023060D5F1F4FF0CF82E0880E911C9FEF1B
:1020D000A91AB90A28E0A216B10409F0AECF68E047
:1020E00070E08AEB91E00E94FB082596EEE00C94EC
:1020F0006D21EF92FF921F93CF93DF93EC018AEB58
:10210000E82E81E0F82E10E08C81970140912E029C
:1021100060912D02810F0E942306115E83E0E80E7C
:10212000F11C183F89F70E94FA0F9A818C8190FF69
:1021300008C08F5F8C83DF91CF911F91FF90EF904C
:1021400008958150F7CF0F931F93CF93DF93CAEB7E
:10215000D1E0FE01118210821282339681E0E23DCD
:10216000F807C1F700E010E08091B901082E000CDB
:10217000990B081719078CF180910201082E000CA9
:10218000990B801791074CF19E0140912E026091AE
:102190002D0280912C020E9423060F5F1F4F239671
:1021A0000830110509F70E94FA0F80910101909102
:1021B000B901980F9093B90120910201280F209343
:1021C0000201121614F497301CF0819580930101DE
:1021D000DF91CF911F910F910895198218821A8271
:1021E000DCCF90912B0290FF0CC0EAEBF1E08183F1
:1021F00060834283339691E0E23DF907C1F70E9484
:10220000FA0F0895A3E0B0E0E8E0F1E10C945B215F
:102210008C018091B80181110AC09E012F5F3F4F50
:102220004FEF6FEF0E9423068A818093B801F80177
:102230006481613049F06230D1F08091B80140E0B2
:10224000662331F040E015C06091B80140E080E0C5
:102250000E94F110F801848190E0019663E070E043
:102260000E942C2184832396E4E00C9477214091F2
:10227000B80180E060E0ECCFA3E0B0E0E2E4F1E19F
:102280000C945D2190912B0290FF0AC09E012F5F5C
:102290003F4F0E9423064B8169818A810E94F11081
:1022A0002396E2E00C947921CF93DF93EC01EC814B
:1022B000F0E0E459FC4F4491EBE2F2E0628181816D
:1022C0000E943C118C818F5F8C83DF91CF910895A8
:1022D000CF93DF93EC01EBE2F2E0438162818C81EA
:1022E0000E943C118C818F5F8C83DF91CF91089588
:1022F000A3E0B0E0EEE7F1E10C945221F82ED62EE7
:10230000E42E722E90912B0290FF2FC0292F26953C
:102310002695E22FF0E0E95DFE4F808180937902FF
:102320009C7F943031F59E012F5F3F4F8F2D0E948F
:1023300023064B8169818A810E94F110F0922C0260
:10234000D0922D02E0922E02772079F020912B027C
:1023500060912F02709130023F2D4D2D5E2D8091A6
:102360003102909132020E94890F2396EDE00C9485
:102370006E21823019F4E0902E02E0CF863019F4FD
:10238000F0902C02DBCF8930D9F38231B9F6EEEE32
:10239000E20F2170C22EE695F0E0E459FB4FE49184
:1023A0000E2F10E03AEBA32E31E0B32E812C912CAE
:1023B000C40123E0969587952A95E1F7C11013C0D3
:1023C0008F0D95014E2D6D2D0E942306800E911EBE
:1023D00083E0A80EB11C22EDA21621E0B20641F75F
:1023E0000E94FA0FABCF2F2D281B822FEACF90919E
:1023F0002B0290FF3BC08823D1F18D31D0F58F7334
:10240000282F220F220F80912B028370282B2093DC
:102410002B02662381F030912C0240912D025091C5
:102420002E0260912F0270913002809131029091C2
:1024300032020E94890F60912B026695669570E0CA
:102440004BE050E083E091E00E94C321892B99F09A
:1024500010927A0281E08093F10120E040912E02F7
:1024600060912D0280912C020E947811089581E0E4
:10247000C7CF8CE1C5CF0E94E30FECCF80912B0238
:10248000869586958F5F8D3108F081E061E00E942E
:10249000F711089590912B02969596958FEF890FDD
:1024A000913009F48CE161E00E94F7110895EBE2AC
:1024B000F2E080818160808360E0869586950E944D
:1024C000F711089590912B0290FF09C0969596956B
:1024D000981728F0961718F40E943E12089561E0AC
:1024E0000E94F7110895A8E0B0E0E9E7F2E10C944A
:1024F00052217C01DC0114968C91882309F4A3C03D
:1025000061E0C7010E94910A8C01F701858188234F
:1025100009F4ACC4980137572038310508F0B1C42C
:10252000003108F090C08FEF93E00E94DD2181110F
:102530008AC091E3E92E92E0F92E011153C01A826C
:102540001982FE01339686E0DF011D928A95E9F734
:102550006701BFEFCB1ADB0AC7010E94DD21898327
:102560001A82882309F46FC0813009F070C0870196
:102570000E5F1F4FC6010E94DD218A83882309F464
:1025800062C09FEF980F9330E0F5E3E0EE0EF11C90
:10259000C8010E94DD218B83882309F454C01C826A
:1025A0008E010F5F1F4FD8018C91882389F28130F3
:1025B00009F090C011968C911197813009F049C0B3
:1025C0006801B2E0CB0ED11CF801828160E070E0BE
:1025D000893311F460E570E00E94F20E86010F5F0E
:1025E0001F4FE1CFE114F4E0FF0669F1C7010E943B
:1025F000DD2197012F5F3F4F79018111F3CF01500A
:102600009CCF8430B9F482E0E82EF12CC8010F5F32
:102610001F4F0E94DD21E1E0F0E0EC0FFD1FEE0D09
:10262000FF1D8083882379F08C3731F4FE01EE0D95
:10263000FF1D12827801B4CFFFEFEF1AFF0A27E0E7
:10264000E216F10419F72896EDE00C946E2176015C
:10265000A7CF823049F46801F2E0CF0ED11C129668
:102660008C910E940C0EBACF833049F46801B2E01D
:10267000CB0ED11CF80182810E949A0EAFCF84301C
:1026800019F00F5F1F4FABCF12962C910E5F1F4FAB
:1026900080E090E06AE0A8014F5F5F4F2053330B6A
:1026A0002A30310558F0009709F499CFAFE9BFE01F
:1026B0001197F1F700C000000197F5CF689FF00176
:1026C000699FF00D1124C9018E0F9F1FF801218110
:1026D0008A01E1CFE82FF0E0EC54FA4F7490282FF4
:1026E00026952695269530E0F901EC55FA4FC490D1
:1026F0008770882ED12C082E02C0D594C7940A94D6
:10270000E2F7B1E0CB22DD24F901EC56FA4FA490B8
:10271000B12C02C0B594A7948A95E2F7E1E0AE220D
:10272000BB24F901EC57FA4F9490C114D104C1F4C1
:10273000A114B10421F560E070E0872D0E94F20E33
:10274000E92DF0E0082C02C0F595E7950A94E2F730
:10275000E0FF45CF60E070E08CE20E94F20E3FCFD8
:1027600081EE0E940C0EA114B10449F460E070E007
:10277000872D0E94F20E81EE0E949A0EE1CF86EE26
:102780000E940C0E60E070E0872D0E94F20E86EE33
:102790000E949A0ECD28A1F2EECF26E241EE61EE24
:1027A0000E941F0F50CF27E245EE65EEF9CF26E2DB
:1027B00041EE60EEF5CF27E245EE64EEF1CF26E282
:1027C00041EE62EEEDCF27E245EE66EEE9CF28E27C
:1027D00041E0EBCF0631FCE71F0709F0DFC0809135
:1027E0002A028111D9C089E20E943607D0C08091A7
:1027F000280281608093280260912802709129024A
:1028000084E090E00E941F220E94260B1CCF809142
:102810002902886080932902EFCF8091280282608C
:10282000E9CF809128028460E5CF809128028860FA
:10283000E1CF809129028160EDCF809129028260F1
:10284000E9CF809128028061D5CF809128028062F3
:10285000D1CF809128028064CDCF0E94260B809139
:1028600028028068C7CF809128028C60C3CF8091F6
:1028700029028360CFCF809128028E7FBBCF8091C9
:102880002902877FC7CF809128028D7FB3CF8091A7
:1028900028028B7FAFCF80912802877FABCF8091BA
:1028A00029028E7FB7CF809129028D7FB3CF80918F
:1028B00028028F7E9FCF809128028F7D9BCF8091B1
:1028C00028028F7B97CF0E94260B809128028F775A
:1028D00091CF80912802837F8DCF809129028C7FB8
:1028E00099CF8091280282FB992790F921E09227C5
:1028F00090FB82F990FB83F97DCF80912902982F7C
:10290000909591708E7F892B90FB81F983CF909168
:102910002802892F8F7B96FF80646CCF0E94260B44
:1029200090912802892F97FB87F9805863CF61E047
:102930008EE090E00E9401225FCF60E0F9CF90919D
:102940002802892F8F7E94FF806154CF90912802B6
:10295000892F8E7F90FF81604DCF90912902892F22
:10296000877F93FF886056CF06312CE7120709F066
:1029700094C0809133028A7A91E0811101C090E085
:1029800090932A02882331F085E30E941D070E945C
:10299000FF0A59CE89E2F9CF85E326CF8091330231
:1029A0008272F801E052F847E531F10508F09BC06A
:1029B000EF5BFD4D0C94402180912B0280FF19C0EC
:1029C000282F2E7F20932B0230912C0240912D0234
:1029D00050912E0260912F0270913002809131024D
:1029E000909132020E94890F10927A020E94FA0F8F
:1029F0002ACE816080932B0261E0869586950E94A5
:102A0000F71121CE4AE452E16EE372E10E94BD0665
:102A10001ACE4EE352E16AE472E1F8CF4EE959E191
:102A200064E979E1F3CF44E959E16EE979E1EECF68
:102A300045EB59E168EA79E1E9CF48EA59E165EB0C
:102A400079E1E4CF4FEC59E162EC79E1DFCF42EC80
:102A500059E16FEC79E1DACF49EC5FE06FEA7FE0B2
:102A6000D5CF4FEA5FE069EC7FE0D0CF61E081E055
:102A7000C6CF65E082E00E946212E5CD68E086E0A4
:102A8000FACF6EE089E0F7CF61E18FE0F4CF6BE140
:102A900082E1F1CF61E08CE1B2CF07373CE7130769
:102AA00009F461C008378CE7180709F469C00130E0
:102AB000BCE71B0709F46CC00330ECE71E0709F400
:102AC00061C00115FCE71F0709F064C00E94260BD6
:102AD0002FEF34E38CE0215030408040E1F700C01C
:102AE00000000E946C0707379CE7190709F444C0EF
:102AF00082E00837ACE71A0709F43FC0D701CD9050
:102B0000DC90C6010E949F03182FB601812F0E94FE
:102B1000580A0E94F104182FD70115962C91159789
:102B200016963C9132953F70492F42954F70483030
:102B300009F4C6C008F042C04430C0F5892F8F7038
:102B4000423008F44BC0907F903211F08295807F24
:102B5000113009F083C0222309F47AC0363048F5D9
:102B60000E940A0F26C081E00E944C0343E062E00D
:102B700081E00E94D30367CD81E00E945803F6CF25
:102B800082E0F2CF6FEF7FEF80E090E00E941F22A3
:102B90000E943C0BF701C080D180C6010E94660AEA
:102BA000182F682FC6010E946803AFCF443009F484
:102BB0006CC060E0C7010E94910A45CD493009F41C
:102BC000F4C04A5F4F704230A0F7823F09F0FEC068
:102BD000892F8F71222309F427C1F5C0082F903166
:102BE00010F00295007F2223C9F0002369F080E2F3
:102BF000810F883010F011110BC080913302802BAF
:102C0000809333020E94FF0A812F0E940C0ED1CFC5
:102C100080913602802B80933602F4CF812F0E9460
:102C20009A0E002331F2009580E2810F883010F077
:102C3000111108C0809133028023809333020E94D7
:102C4000FF0AB7CF80913602802380933602F7CFF8
:102C5000353008F0AECF0E94140FABCF222321F005
:102C6000332309F47DCFD0CF3323A9F3193349F4AB
:102C7000BFEFE7EEF3E0B150E040F040E1F700C015
:102C80000000812F0E949A0E94CF892F86958695F9
:102C90008370882361F0813009F08BCF812F93708E
:102CA000211102C080E090E00E94F70682CF812FC0
:102CB0009370211102C080E090E00E94D10679CF8C
:102CC000892F8370811138C0211129C0812F8295ED
:102CD00086958770880F880F212F2F70082E01C0CE
:102CE000220F0A94EAF71071112341F04FE050E0EF
:102CF00001C0440F8A95EAF7142F10959695969582
:102D000093709230A1F0812F822B933031F080911B
:102D10003402913049F0212B82230E9446030E9405
:102D2000C4060E94390345CF822B812BF6CF212B7D
:102D3000809134028227F1CF222361F190FFEFCFFF
:102D4000812F829586958770880F880F212F2F708D
:102D5000082E01C0220F0A94EAF71071112341F0E6
:102D60004FE050E001C0440F8A95EAF7142F109508
:102D7000969596959370923099F0812F822B93308F
:102D800031F080913502913041F0212B82230E9455
:102D90004903C5CF823018F2D3CF822B812BF7CFD6
:102DA000212B809135028227F2CF092F0F70222329
:102DB00039F0802F0E944C03812F0E940A0FAFCF61
:102DC0000E94140F802F0E945803A9CF833F60F404
:102DD000803F99F0813F21F12223B9F1332391F112
:102DE000812F0E940C0E9BCF833F09F12111F6CF5A
:102DF000311138C0892F8F71E6CF222379F0353019
:102E000008F08DCF292F2F7181E090E001C0880F4D
:102E10002A95EAF7909135028927B9CF3530F0CF5E
:102E2000892F8F71222379F20E944C0378CF80E0A2
:102E3000222309F4ACCF9F7181E001C0880F9A95DD
:102E4000EAF7A5CF892F8F71EFCF332399F289331A
:102E500049F42FEF37EE83E0215030408040E1F716
:102E600000C00000812F0E949A0E59CFF801E8514E
:102E7000FC47E730F10508F0ADCCEA5AFD4D0C9463
:102E80004021F801E851FC47E730F105B0F310921A
:102E90002702C8019057839708F066CD84E090E040
:102EA0000E94EB219093290280932802F801E150BF
:102EB000F047E232F10508F09ACCE35AFD4D0C944C
:102EC000402180917702803178F4809176028823C6
:102ED00059F0E0913802209137023091720240910E
:102EE000710257E02E1301C008956E2F70E05E9FAF
:102EF000F0011124DF01A75CBD4F14968C9114974B
:102F0000882361F111968C911197831327C08C91BE
:102F1000841324C015968C91159781111FC01296A9
:102F20008D919C91A0917302B09174028A1B9B0BAE
:102F3000883C910598F4809177028F70806180932E
:102F40007702E15CFD4F80818F708061808381E733
:102F500092E00E9473120E94F4030895FB013196DF
:102F6000E770C0CFADE0B0E0E8EBF7E10C945121A1
:102F70008C0186E0F801DE01189601900D928A9589
:102F8000E1F7F8017080F580A280B380848191E739
:102F9000892E92E0992E60907502611018C08823E6
:102FA00099F0FF2009F413C1C8010E94C00A8823C8
:102FB00009F40DC187E0F801A1E7B2E001900D929C
:102FC0008A95E1F70E946117FF24F39453C0D090D3
:102FD00076022091730230917402A501421B530BBB
:102FE000DD2009F4C4C0483C510508F07AC08823AC
:102FF00059F380917202C180E0907702FFE0FE15E4
:1030000008F459C0C81215C080917102871111C00F
:10301000F1104BC08E2D8F7080618093770281E715
:1030200092E00E94731280917702F8018683F12C5E
:1030300021C0F1103AC040E06C2D872D0E94DC08C1
:1030400040E06C2D872D0E94DC08F82E8111EFCF17
:10305000888599850E94B10A292F22952F70903476
:1030600070F49F702230A0F09923B1F0F80196819E
:10307000903190F48F2D2D96EEE00C946D212A5F07
:103080002F70223068F0C8010E947312FD2CF2CF1D
:10309000992311F0882371F3805E883058F3F3CFC1
:1030A000803F40F3815F8230F9CF80917702816069
:1030B00080937702BCCFC8123CC080917102871107
:1030C00038C0F11036C0F801E682C8010E947312C0
:1030D00087E0F801A1E7B2E001900D928A95E1F74F
:1030E00073CFE0907702FFE0FE1550F081E792E0A9
:1030F0000E94731287E0F40111928A95E9F797CF45
:10310000882309F461CF90917202F80181819813AC
:1031100010C08091710287110CC0F1100AC0E682C4
:10312000C8010E94731287E0F40111928A95E9F7B1
:103130004BCFC8010E94C00A882309F448C0FF2071
:1031400009F445C080917702803208F433CF809132
:103150007102909172029A838983BC82AB826D82E4
:103160001E82EF82CE0101960E94731223CF483C4B
:10317000510508F0BFCF882309F426CFFF2039F18D
:10318000909172028181981318C080917102871109
:1031900014C08091770280FD9BCF803108F498CFD6
:1031A0008683807F803F09F490CF8681982F907F1F
:1031B000905F8F70892B868388CFC8010E94C00AD8
:1031C0008111F8CE80917702816080937702C801E7
:1031D0000E947312F9CEABE1B0E0E1EFF8E10C949C
:1031E0005C214E8B5F8B688F798F8A8F9B8F9111BB
:1031F000109236021D8A86E0FE017696DE011F9649
:1032000001900D928A95E1F78B89882329F061E07E
:10321000CE010F960E94910A87E0FE013F96DE01E3
:10322000189601900D928A95E1F7CE0108960E94BA
:10323000B21781112BC087E0FE013896DE0111968E
:1032400001900D928A95E1F7209137024091380262
:103250008C858823D9F030E0C901019687709927C1
:1032600050E084179507E9F097E0929FD001939F73
:10327000B00D1124A75CBD4FFE01319601900D9257
:103280009A95E1F7809337020E94F40317E080914A
:10329000380290913702891312C06B96E3E00C94C8
:1032A00078210E94260B109237021092380287E094
:1032B000E1E7F2E0DF011D928A95E9F7E7CF189F79
:1032C000C0011124875C9D4F0E94B217882329F307
:1032D0008091380290E00196877099278093380298
:1032E000D6CFA6E0B0E0E7E7F9E10C945B210E94BD
:1032F00043078C0180910002909101028017910791
:1033000079F019821A820E944307BC0149815A81CF
:1033100080E090E00E94EB181093010200930002FD
:103320002696E4E00C947721EBE2F2E0818121E043
:1033300043816281885F0E9478110895EBE2F2E098
:10334000818121E04381628188500E947811089533
:10335000EBE2F2E0628128E0620F08F46FEF21E017
:10336000438181810E9478110895EBE2F2E062814D
:1033700028E0621B08F460E021E0438181810E9423
:1033800078110895EBE2F2E0438128E0420F08F45F
:103390004FEF21E0628181810E9478110895EBE274
:1033A000F2E0438128E0421B08F440E021E0628122
:1033B00081810E9478110895AAE0B0E0E2EEF9E17F
:1033C0000C945121FE0131968AE0DF011D928A950D
:1033D000E9F794E4A92E91E0B92E8F013F01EE2484
:1033E000E394F12C36E5C32E31E0D32EF501819123
:1033F0005F018F3F09F446C0F894E82FE295EF7023
:10340000F0E021A18F70A70102C0440F551F8A95DB
:10341000E2F7CA01922F982B91A392A1809589235C
:1034200082A3789400C0E9E4F1E021E030E0812C4F
:10343000912C41914F3F09F44BC0A42FA295AF703E
:10344000A05EB0E08C9190E04F7002C0959587959A
:103450004A95E2F7817081113BC0C901882A992AF7
:10346000220F331FCE16DF0621F7F5013197808139
:103470008F3F11F00E94090650EA5A95F1F7D801E2
:103480008D929C920E5F1F4FB9E4AB16B1E0BB0664
:1034900009F0ACCF4AE050E0B30182ED91E00E9428
:1034A000D021892BC1F08AE0F301A2EDB1E00190B7
:1034B0000D928A95E1F781E0809398010E9443077D
:1034C00090939701809396012A96EEE00C946D21DB
:1034D00080E090E0C3CF809198018823A9F32091E8
:1034E0009601309197014FB7F8948091B001909177
:1034F000B101A091B201B091B3014FBF821B930BF8
:10350000059710F34AE050E062ED71E085EF91E03D
:103510000E94D021892B49F08AE0E2EDF1E0A5EF8D
:10352000B1E001900D928A95E1F710929801CCCF0D
:10353000CDB7DEB7A4970FB6F894DEBF0FBECDBFF0
:1035400085B7806885BF85B7806885BF84B7877F6A
:1035500084BF0FB6F894A89580916000886180932D
:103560006000109260000FBE80E890E00FB6F89403
:1035700080936100909361000FBE87E096E0909386
:103580008D0180938C010E942B080E9481088091FC
:10359000E20084608093E20078948091FF018823A8
:1035A00099F08091E9001091EC001795112717957B
:1035B0008F70182B1092E9008091E80083FD0E9423
:1035C000520B1F701093E90082E084BD93E095BD1B
:1035D0009AEF97BD80936E000E94E60A811102C0A7
:1035E0000E94190A04E411E029E4E22E21E0F22EFF
:1035F000D8018D918D018F3F11F00E940906E016D0
:10360000F106B1F709E411E096E5E92E91E0F92E13
:10361000F80181918F018F3F11F00E940906E01699
:10362000F106B1F78AE0E5EFF1E0DF01282F1D9206
:103630002A95E9F7E2EDF1E0DF011D928A95E9F7BD
:1036400080E090E00E94EB21863E9E4F21F40E9494
:10365000E60A811168C066EE7EEF80E090E00E948D
:103660001F2260E082E090E00E94012281E08093CE
:10367000340261E083E090E00E94012260E074E1A6
:1036800084E090E00E941F2260E086E090E00E94CB
:10369000012260E087E090E00E94012240E050E0DB
:1036A000BA0188E090E00E94132260E084E290E09A
:1036B0000E94012260E087E190E00E94012260E028
:1036C0008CE090E00E94012260E08DE090E00E949A
:1036D000012219821A821B821C821D821E821F8275
:1036E000188648E050E068E170E0CE0101960E9443
:1036F000F12140E050E0BA0180E290E00E94132204
:1037000080E00E94FB090E94190A40E050E0BA01E3
:103710008FE090E00E94132240E050E0BA0183E184
:1037200090E00E94132282E090E00E94DD218093CD
:10373000E30184E090E00E94EB21909329028093C2
:1037400028020E94DC19EFEFF6E721E0E150F0409B
:103750002040E1F700C000000E94DC198091F501D3
:1037600080FF08C06FEF7FEF80E090E00E941F2293
:103770000E946C0783E090E00E94DD210E944603D6
:103780008091DC01811196C088E090E00E94E521E3
:103790006B017C0184E290E00E94DD21282F30E063
:1037A00040E050E060E070E080E090E000E20E94E5
:1037B0008421F22FA32EB42EB52FA62FE72F970129
:1037C000860140E050E0BA01FC29A12AB22AB32BBD
:1037D000A42BE52B862B972BF0932B02A0922C0287
:1037E000B0922D02B0932E02A0932F02E0933002EC
:1037F0008093310290933202F43008F04BC025E000
:1038000020932B0210922C022FEF20932D02209355
:103810002E0210922F0225E030E04FEF5FEF60E0C4
:103820007E2F0E94890F88E090E00E94E5216B01C5
:103830007C0184E290E00E94DD21282F30E040E00E
:1038400050E060E070E080E090E000E20E948421BF
:103850005901B42FA52FF62FE72F9701860140E0DD
:1038600050E0BA01AC28B12AB22BA32BF42BE52BE4
:10387000862B972BA0922B02B0922C02B0932D0294
:10388000A0932E02F0932F02E09330028093310236
:10389000909332020E94AF0610927A0280912B021E
:1038A00080FF05C060E0869586950E94F71181E053
:1038B0008093DC0181E795E09093DE018093DD0148
:1038C0008EE091E0909303028093020288E1682EDB
:1038D000712C55245394442443948091FF018530E6
:1038E000A1F48091FF01853009F466C00E94260B87
:1038F0000E94C4060E9439031092E1018091E00108
:1039000081110E9457120E94E30F0E94DC1914EEED
:10391000A12E11E0B12E05EF802E01E0902E4EEE8B
:1039200051E0D401F501219131918D919D914E1776
:103930005F0709F4A8C028173907A9F3312CD4016F
:103940000D911D914D01F501C190D1905F01C016FF
:10395000D10659F1C026D126212CEE24E394F12C76
:10396000C6018E219F21892BB1F029823A820E94C3
:1039700043079C838B835D8291E098012E213F2138
:10398000232B09F490E09E8349815A816B817C81CD
:103990008D810E94EB182394EE0CFF1CFDE02F128A
:1039A000DFCFF501329711830083339425E0321283
:1039B000C6CF0E944F076DC08091FF01843009F48B
:1039C00038C080E00E94390310927A028091E101B0
:1039D00081110DC04092E10180912B02982F9170CE
:1039E0009093E0018E7F80932B020E94FA0F109239
:1039F000DF0140E40FB6F894A895609260000FBE16
:103A00004093600083B7817F846083BF83B7816008
:103A100083BF7894889583B78E7F83BF0FB6F89461
:103A2000A89580916000886180936000109260008A
:103A30000FBE8091E201882309F453CF0E94DC1964
:103A4000E5EFF1E081919191892B29F481E0EF3F3D
:103A5000F807C1F746CF80E189BD82E189BD09B48D
:103A600000FEFDCF8091D8008F7D8093D80080919B
:103A7000E00082608093E0008091E00081FDFCCF57
:103A80000E94260B2ECF2817390709F057CF0E9426
:103A9000711980917A028823D9F180917902E0919D
:103AA0002B02E695E695E81BE093F001823009F0E1
:103AB00064C0F0E0E058FA4FE4910E2F10E0F4E516
:103AC000EF2EF1E1FF2E8091F101882361F0109239
:103AD000F1010E9443079093EF018093EE01109251
:103AE000F3011092F2010E9443072091EE01309100
:103AF000EF01821B930B8F3F9F4750F4200F311F24
:103B00003093EF012093EE018EEE91E0F7010995DD
:103B100080917802882369F01092780280917A026D
:103B2000811107C080912B0260E0869586950E94E6
:103B3000F7110E94C406182F8091F401181739F06C
:103B40001093F4010E944F07812F0E943903809146
:103B5000FF01843009F0C1CE83E08093E9008091B9
:103B6000E80082FFBACE8091E80085FD40C08091D8
:103B7000E8008B778093E800B0CE863059F4F0E00F
:103B8000E358FA4FE4910E2F10E0E8E6EE2EE1E163
:103B9000FE2E99CF893061F4E695F0E0E658FA4FB1
:103BA000E4910E2F10E079E7E72E70E1F72E8BCF2E
:103BB0008F3059F4F0E0E958FA4FE4910E2F10E0FD
:103BC00063EAE62E60E1F62E7ECF00ED17E042E2DA
:103BD000E42E46E0F42E8C3109F075CFE5E7F5E0F0
:103BE0000591149152E0E52E51E1F52E6CCF0E9423
:103BF000FA0730E2E32EF12C8E010F5F1F4F88236E
:103C0000D9F08091E8008B778093E8008981EFEF0D
:103C1000E80FE33158F5F0E0E158FD4D0C944021F8
:103C20008091F100D8018C93B1E0EB1AF108E11416
:103C3000F10439F30F5F1F4F8091E80085FDF0CF4D
:103C40008091E8008B778093E8000E94FA07882330
:103C500099F3D7CF1A828CE08B831AC08A81833084
:103C600049F138F4813061F08230D9F08FEF8983E7
:103C70000FC08430D9F71B821C821D821E8208C0AF
:103C80000E944F070E9446216B837C838D839E8315
:103C900040E250E0BE016F5F7F4F82E00E94290941
:103CA0001CCE88E290E00E94DD211B821C821D82D6
:103CB0008E83EECF8B8190E0DE01119612968530D7
:103CC000910534F7FC01FF27EE0FFF1FEB50FE4F6D
:103CD0002081318111963C93119712962C93129763
:103CE0000196ECCF8A81823089F0853009F0BECF11
:103CF00080912B0280FF1BC080912B028E7F8093CE
:103D00002B0210927A020E94FA0FC2CF8B819C8103
:103D1000AD81BE8189A39AA3ABA3BCA3BC01CD0195
:103D20000E94462188E290E00E940122B1CF0E94C9
:103D30005712AECF4C816B818A810E94290A982745
:103D4000892798279E838D83A3CF2D813E8132279B
:103D5000232732274C816B818A810E94850998CF65
:103D60000E94AC0995CF9A81923009F07FCF8830BC
:103D700069F1893009F44DC08B81833019F180F4E9
:103D80008130B9F0823009F083CF8C81882309F427
:103D9000B3CF0E94571260E08C810E94F71178CF58
:103DA000843009F075CF20E040912E026D818C8126
:103DB00006C020E04C8160912D0280912C020E946F
:103DC000781166CF8C8180932F0262CF8B818330F4
:103DD000E9F060F48130A1F0823009F059CF809190
:103DE0002B0280FF11C0869586950CC0843009F0A7
:103DF0004FCF80912C028C8380912D028D8348CFF0
:103E000080912E028C8344CF80E0FCCF80912F02E2
:103E1000F9CF20912B0230912C0240912D0250912C
:103E20002E0260912F0270913002809131029091A8
:103E300032020E94890F2CCF80E18A8329CF81E052
:103E40008A838FEC09CF0A811B8110270127102755
:103E50008C816801C80ED11C7E0195E0E90EF11C31
:103E6000C016D10609F414CF80E00F3CA1E01A0778
:103E700028F4C8018F5C9D4F0E94DD21F7018193DA
:103E80007F010F5F1F4FECCF0A811B811027012795
:103E90001027CE0101967C01CC80C80ED92ED11CF2
:103EA000CE14DF0409F4F4CE0F3C91E0190740F47E
:103EB000D70114966C91C8018F5C9D4F0E9401221E
:103EC0000F5F1F4FBFEFEB1AFB0AEACF0E94EB090F
:103ED000DFCE84E0B2CF0A811B8110270127102793
:103EE0008C816801C80ED11C7E01E5E0EE0EF11C4C
:103EF0000C151D0509F4CCCE80E00830F2E01F0758
:103F000020F4C80189960E94DD21D7018D937D019F
:103F10000F5F1F4FEDCF0A811B811027012710274C
:103F2000FE0131967F01CC80CE0EDF2ED11CEC1429
:103F3000FD0409F4ADCE0830F2E01F0738F4D701D4
:103F400014966C91C80189960E9401220F5F1F4F41
:103F5000BFEFEB1AFB0AEBCF1F921FB61F92112483
:103F60008F939F93AF93BF938091DF01811113C013
:103F70008091B0019091B101A091B201B091B301D3
:103F80004196A11DB11D8093B0019093B101A09302
:103F9000B201B093B301BF91AF919F918F911F90E8
:103FA0001FBE1F90189578941F921FB61F92112460
:103FB0008F939F93AF93BF938091B0019091B10184
:103FC000A091B201B091B3010196A11DB11D8093E2
:103FD000B0019093B101A093B201B093B301BF912E
:103FE000AF919F918F911F901FBE1F9018951F92A8
:103FF0000F920FB60F9211242F933F934F935F931D
:104000006F937F938F939F93AF93BF93EF93FF93A0
:104010008091E10082FF09C08091E20082FF05C02B
:104020008091E1008B7F8093E1008091DA0080FF36
:1040300024C08091D80080FF20C08091DA008E7F5C
:104040008093DA008091D90080FF9BC080E189BD18
:1040500082E189BD09B400FEFDCF81E08093FF01BC
:1040600080919E01811109C00E942B080E94810845
:104070008091E20084608093E2008091E10080FF03
:1040800017C08091E20080FF13C08091E2008E7F14
:104090008093E2008091E20080618093E200809151
:1040A000D80080628093D80019BC85E08093FF011E
:1040B0008091E10084FF29C08091E20084FF25C047
:1040C00080E189BD82E189BD09B400FEFDCF809108
:1040D000D8008F7D8093D8008091E1008F7E8093FF
:1040E000E1008091E2008F7E8093E2008091E20007
:1040F00081608093E20080919D01882309F447C08C
:1041000084E08093FF018091FF018091E10083FFB3
:1041100027C08091E20083FF23C08091E100877F68
:104120008093E10082E08093FF0110929D018091D5
:10413000E1008E7F8093E1008091E2008E7F80938A
:10414000E2008091E20080618093E20042E060E062
:1041500080E00E944A088091F00088608093F0001F
:10416000FF91EF91BF91AF919F918F917F916F914F
:104170005F914F913F912F910F900FBE0F901F9025
:10418000189519BC1092FF0110929E0176CF809174
:10419000E30087FF02C083E0B4CF81E0B2CF1F927B
:1041A0000F920FB60F921124FF920F931F932F932C
:1041B0003F934F935F936F937F938F939F93AF93AF
:1041C000BF93CF93DF93EF93FF9309EE10E0F801D5
:1041D0008081C091EC00C795CC27C7958F70FC2ECD
:1041E000F82A1082C0EFD0E08881877F8883789496
:1041F0000E94520BF8011082888188608883CF2D3D
:10420000CF70C083FF91EF91DF91CF91BF91AF91BC
:104210009F918F917F916F915F914F913F912F91DE
:104220001F910F91FF900F900FBE0F901F90189548
:10423000AA1BBB1B51E107C0AA1FBB1FA617B707CC
:1042400010F0A61BB70B881F991F5A95A9F78095E8
:104250009095BC01CD01089597FB072E16F40094AC
:1042600007D077FD09D00E94182107FC05D03EF445
:10427000909581959F4F0895709561957F4F089512
:10428000EE0FFF1F0590F491E02D09946927962702
:10429000692778278727782708952F923F924F9292
:1042A0005F926F927F928F929F92AF92BF92CF92C6
:1042B000DF92EF92FF920F931F93CF93DF93CDB7CF
:1042C000DEB7CA1BDB0B0FB6F894DEBF0FBECDBF47
:1042D00009942A88398848885F846E847D848C8418
:1042E0009B84AA84B984C884DF80EE80FD800C8121
:1042F0001B81AA81B981CE0FD11D0FB6F894DEBF04
:104300000FBECDBFED010895002E083090F0982F1C
:10431000872F762F652F542F432F322F22270850B7
:10432000F4CF220F331F441F551F661F771F881FAE
:10433000991F0A95B2F7002D089597FD1094002E4D
:10434000083098F00850232F342F452F562F672F11
:10435000782F892F912DF4CF159497958795779580
:10436000679557954795379527950A95AAF711248C
:10437000002D0895FB01DC0102C005900D92415013
:104380005040D8F70895FC014150504030F0019062
:104390000616D1F73197CF010895882799270895F8
:1043A000FB01DC0104C08D910190801921F4415082
:1043B0005040C8F7881B990B0895F999FECF92BD1C
:1043C00081BDF89A992780B50895A6E1B0E044E050
:1043D00050E00C942722A8E1B0E042E050E00C94B9
:1043E0002722DC01A40FB51F4150504048F0CB01FB
:1043F000840F951F2E910E94022241505040D0F709
:104400000895262FF999FECF92BD81BDF89A0197A4
:1044100000B4021639F01FBA20BD0FB6F894FA9A0C
:10442000F99A0FBE08950396272F0E9402220E9438
:104430000122252F0E940222242F0C940222019691
:10444000272F0E9402220C940122DC01CB01FC01E7
:10445000F999FECF06C0F2BDE1BDF89A319600B4DD
:104460000D9241505040B8F70895F894FFCF300CAA
:10447000560C5C0C560C5C0CAF0CD10C5C0CCD0DCE
:10448000DA0DDC14021509150E15131518151D1576
:10449000221527152C153115361539153E154115E0
:1044A00023134415231347154A152313D713DB137E
:1044B000CD13D313DF13E313E7133B14A6144314F4
:1044C0000D141114471415144B14571421149F1470
:1044D00025145B1429145F1487142D1463148E148F
:1044E00033146914711419144F141D145314371410
:1044F0006D147D1497149D1407143F14AD142A1ED7
:104500002E1E721E9A1EA51EB01EB31EB31EB31E13
:10451000361E361E1C1F1F1F231F441F661F691FC8
:044520006B1F8B1F63
:104524000101020112131415161718191A1B7D071D
:104534006709800781077E094422320001DE00AC4E
:104544000065017E019E01000102020202060606C8
:104554000909090909090F0F0F1212121212121276
:104564001212121C95F5F6F7313332363597C634EC
:10457400669490919293E200E900EA00B500B600D7
:10458400B700CD008301CC008A019201940121027D
:10459400230224022502260227022A02B300B400C1
:0C45A4006F0070009F01CB019F02A0027D
:00000001FF
