:100000000C943F030C945C030C945C030C945C0311
:100010000C945C030C945C030C945C030C945C03E4
:100020000C945C030C945C030C94DC1C0C94981CE6
:100030000C94D91D0C945C030C945C030C945C032D
:100040000C945C030C945C030C945C030C945C03B4
:100050000C945C030C94B51D0C945C030C945C0331
:100060000C945C030C945C030C945C030C945C0394
:100070000C945C030C945C030C945C030C945C0384
:100080000C945C030C945C030C945C030C945C0374
:100090000C945C030C945C030C945C030C945C0364
:1000A0000C945C030C945C030C945C03060200FF4C
:1000B000FF000100FFFFFF0000000005010902A191
:1000C0000185020901A1000509190129081500256A
:1000D0000195087501810205010930093115812555
:1000E0007F95027508810609381581257F95017570
:1000F000088106050C0A38021581257F95017508CF
:100100008106C0C005010980A101850319012AB734
:1001100000150126B700950175108100C0050C0976
:1001200001A101850419012AA002150126A002954A
:100130000175108100C00660FF0961A10109621507
:100140000026FF009520750881020963150026FF2F
:1001500000952075089102C005010906A101050757
:1001600019E029E71500250195087501810295011F
:10017000750881010507190029FF150026FF009564
:100180000675088100050819012905150025019546
:100190000575019102950175039101C000000000F1
:1001A000000000000000000000000000000000004F
:1001B000000000000000000000000000000000003F
:1001C0007E0F00D4FFFFFFC7000000780000000092
:1001D000000000002A2B28000000000000000000A2
:1001E0000000000000000029000000002C1E342048
:1001F000212224342627252E362D3738271E1F206E
:100200002122232425263333362E37381F040506B2
:100210000708090A0B0C0D0E0F10111213141516F6
:100220001718191A1B1C1D2F3130232D35040506F4
:100230000708090A0B0C0D0E0F10111213141516D6
:100240001718191A1B1C1D2F3130354CAC0000003B
:1002500000047F3F1F643214783C1E1E140A050000
:100260000101010101010101010202020202020277
:10027000020203030303030303030404040404044A
:100280000405050505050606060606070707070710
:1002900008080808090909090A0A0A0B0B0B0C0CC3
:1002A0000C0D0D0D0E0E0E0F0F0F1010111111125F
:1002B0001213131414151516161717181819191ADE
:1002C0001A1B1B1C1D1D1E1E1F2020212222232441
:1002D00024252626272829292A2B2C2D2D2E2F3080
:1002E000313232333435363738393A3B3C3D3E3F94
:1002F000404142434445464748494A4C4D4E4F5081
:10030000515354555658595A5B5D5E5F616264653E
:100310006668696B6C6D6F7072737577787A7B7DC8
:100320007E8082838587888A8C8E8F91939596981C
:100330009A9C9EA0A2A3A5A7A9ABADAFB1B3B5B738
:10034000BABCBEC0C2C4C6C9CBCDCFD1D4D6D8DB0F
:10035000DDDFE2E4E7E9EBEEF0F3F5F8FAFDFFFFAD
:10036000AA7F55402223252628292A2C2D2F3032DA
:10037000333536383A3B3D3E4042434547494A4C87
:100380004E5051535557595A5C5E606264666869B5
:100390006B6D6F71737577797B7D7F8183858789BD
:1003A0008A8C8E90929496989A9C9E9FA1A3A5A7C2
:1003B000A8AAACAEAFB1B3B4B6B8B9BBBCBEBFC1EE
:1003C000C2C3C5C6C7C9CACBCCCDCED0D1D2D2D379
:1003D000D4D5D6D7D7D8D9D9DADADBDBDBDCDCDC8D
:1003E000DCDCDDDDDDDDDCDCDCDCDCDBDBDBDADA50
:1003F000D9D9D8D7D7D6D5D4D3D2D2D1D0CECDCCC7
:10040000CBCAC9C7C6C5C3C2C1BFBEBCBBB9B8B6DB
:10041000B4B3B1AFAEACAAA8A7A5A3A19F9E9C9A66
:1004200098969492908E8C8A89878583817F7D7B34
:1004300079777573716F6D6B6968666462605E5C15
:100440005A5957555351504E4C4A494745434240DB
:100450003E3D3B3A3836353332302F2D2C2A292871
:100460002625232229001E001F0020002100220033
:10047000230024002500260027002D002E002B003D
:1004800014001A000800150017001C0018000C00CA
:10049000120013002F00300039000400160007007E
:1004A00009000A000B000D000E000F00330034009D
:1004B0002800E1001D001B000600190005001100C6
:1004C000100036003700380052004C00E000E30016
:1004D0000000E200215200002C002A0031002A0016
:1004E000500051004F0001003A003B003C003D002D
:1004F0003E003F00400041004200430044004500F0
:1005000001000100010001000100010001000100E3
:1005100001000100010001000100010001000100D3
:1005200001000100010001000100010001000100C3
:1005300001000100010001000100010001000100B3
:1005400001000100010001000100010001000100A3
:100550000100000001000100000001002252010022
:100560000100010001000100007C01000100010008
:100570000100010001000100010001000100010073
:1005800001002078237825782778010001000100F8
:100590000100010001000100010001002178247820
:1005A0002678287801000100010001000100010007
:1005B0000100010001000100010001000100010033
:1005C0000100010001000100010001000100010023
:1005D0000100010000000100010000000100010015
:1005E0000100010001000100010009025B0003019C
:1005F00000A03209040000010301010009211101DA
:1006000000012244000705810308000309040100DA
:100610000203000000092111010001222200070548
:1006200082032000010705030320000109040200E2
:100630000103000000092111010001227B000705D0
:10064000840320000312010002000000086D730201
:100650000001010102000112034E0061006E0067FB
:100660000067006F006E00670000000C035300611C
:10067000006E006D006100000004030904001124F5
:100680001FBECFEFDAE0DEBFCDBF11E0A0E0B1E0EA
:10069000E0E4FAE402C005900D92AE38B107D9F754
:1006A00022E0AEE8B1E001C01D92AB38B207E1F73D
:1006B0000E94001E0C94B7240C940000482F209137
:1006C000870290914E0257E0291302C080E00895FE
:1006D00030E0529FF001539FF00D1124E15BFD4F7C
:1006E0008181681306C08081481303C08581811110
:1006F000EECF2F5F3F4F2770E7CFE8EDF0E080812E
:100700008E7F80831092E2001092DA001092E10056
:10071000A0EEB0E08C9181608C9380818F77808394
:1007200019BCA7EDB0E08C918E7F8C9380818F7E79
:1007300080831092370208952091E4003091E50003
:1007400095E6A9012091EC00822F817020FF06C060
:100750008091E80080FF06C080E008952091E800C5
:1007600022FD1AC080914402882389F0853089F0E7
:100770008091EB0085FD0FC02091E4003091E500F1
:1007800042175307F9F29150E1F684E0089582E0B0
:10079000089583E0089581E008958091460287FFDF
:1007A00013C08091E80082FF06C08091E8008B773B
:1007B0008093E80004C0809144028111F2CF089533
:1007C000809144028823D9F38091E80080FFF8CF1C
:1007D0008091E8008E77ECCF982F9093E900242F3A
:1007E000762F50E0891731F07091EC002091ED00E8
:1007F0005091F00021FD07C09F5F973071F7809303
:10080000E90081E008953091EB003E7F3093EB00EA
:100810003091ED003D7F3093ED003091EB00316081
:100820003093EB007093EC002093ED005093F000B8
:100830002091EE0027FDE0CF80E00895B0E0A0E039
:10084000E4E2F4E00C94D923C8EDD0E088818F7EF7
:100850008883E7EDF0E080818160808384E082BF5F
:1008600081E08093370288818E7F888302EE10E0DA
:10087000F80110821092DA0081EEC82ED12CF60118
:10088000108288818F7788838881806888838881B7
:100890008F7D888319BC10924402109245021092F9
:1008A00043021092420290EEE92EF12CF701808172
:1008B0008B7F808388818160888342E060E080E074
:1008C0000E94EC03F60180818E7F8083F801808195
:1008D00081608083808188608083F70180818E7F42
:1008E0008083888180618883CDB7DEB7E8E00C948F
:1008F000F523FC0180914C0290914D0286179707D9
:10090000A0F06115710529F49091E8009E7790930D
:10091000E80090E06115710551F4911108C08091D3
:10092000E80082FF34C080E00895BC01F2CF8091DE
:1009300044028823C1F18530C1F18091E80083FD34
:1009400030C08091E80082FDEACF8091E80080FF0E
:10095000E1CF8091F3002091F200382F61157105ED
:1009600019F02830310558F091E02830310509F0B0
:1009700090E02091E8002E772093E800CBCF819182
:100980008093F100615071092F5F3F4FE7CF809155
:100990004402882341F0853041F08091E80083FFD4
:1009A000BECF81E0089582E0089583E008958091AC
:1009B0003902089587E797E790930108809300082C
:1009C00088E19AE00FB6F894A895809360000FBE76
:1009D00090936000FFCF9C014FB7F8948091330251
:1009E00090913402A0913502B09136024FBF821B24
:1009F000930B08952FB7F8948091330290913402AD
:100A0000A0913502B09136022FBF0895A3E0B0E067
:100A1000ECE0F5E00C94DF232091300230913102BC
:100A200028173907A1F09093310280933002E091AA
:100A30002E02F0912F02309751F024E029839B83FE
:100A40008A830680F781E02DCE01019609952396D1
:100A5000E2E00C94FB23A3E0B0E0E1E3F5E00C94CA
:100A6000DF2320912C0230912D0228173907A1F0A5
:100A700090932D0280932C02E0912E02F0912F0290
:100A8000309751F023E029839B838A830680F78186
:100A9000E02DCE01019609952396E2E00C94FB230C
:100AA000E0912E02F0912F02309729F00190F08111
:100AB000E02D0995089580E00895FA01811101C0A3
:100AC000FB0109950895089580912402982F9E7F37
:100AD00029F4817082608093240208958A33E8F3B8
:100AE00081708863F8CFAF92BF92DF92EF92FF924E
:100AF0000F931F93CF93DF93082F162FE901E42F55
:100B0000F0E0E15AFD4F611110C0E4915E2F4E2FCD
:100B10004983E8835A83DF91CF911F910F91FF9012
:100B2000EF90DF90BF90AF900895E62EF12C4491A6
:100B3000D42EE42FF0E026E0829FC00111242FEF95
:100B400030E0B9010E949A23802F90E0880F991F0E
:100B500055E5569FD001579FB00D11248A1B9B0B62
:100B6000982F990F890F5901AE18BF08AE9ED0017A
:100B7000AF9EB00DBE9EB00D11245B2F189F80015B
:100B80001124012F11275901A01AB10AAE9E80012C
:100B9000AF9E100DBE9E100D11245901A81AB10868
:100BA000AE9CC001AF9C900DBE9C900D1124892F6E
:100BB0009927281B390B2E9FC0012F9F900D3E9F18
:100BC000900D1124E92F62307105A1F050F46115E8
:100BD000710509F49DCF6130710581F0EB2F512F24
:100BE00097CF6430710569F080F06630710509F4C3
:100BF0008FCFF4CFE42F4B2F592F8ACFE42F412FE3
:100C000087CFEB2F542F492F83CF4B2F5D2DE12F13
:100C10007FCF0E94FA049C019091FB018091FC011E
:100C2000982B21F03093F8012093F7019091FD016A
:100C30008091FE01982B21F03093F6012093F5016D
:100C4000E0912E02F0912F02309749F082E08093DC
:100C5000F9010480F581E02D89EF91E0099508956F
:100C60008091F40180FD16C081FD16C082FD16C082
:100C70008091F3018823A1F0883280F428E0829FDC
:100C8000C001112468E270E00E94AE23862F672B1A
:100C900039F0089582E0089584E0089588E0089589
:100CA00081E008958091F40180FD14C081FD14C09D
:100CB00082FD16C08091F201882381F08E3180F48C
:100CC00020E5829FC00111246EE170E00E94AE23F6
:100CD000862F089584E1089588E2089588E00895B4
:100CE00080E50895282F35EB2303C001112497FFD9
:100CF00004C080589109892F089580589F4FFBCFD9
:100D000080E00895F894E82FE295EF70F0E031A1CB
:100D1000282F2F7081E090E001C0880F2A95EAF714
:100D2000982F9095932391A392A1892B82A37894D5
:100D300008959091D60192FF10C041E0282F2471B0
:100D4000243009F040E031E0282F2871283009F0E4
:100D500030E0431711F02CE0822793FF10C041E0F0
:100D6000282F2471243109F040E031E0282F287128
:100D7000283109F030E0431711F02CE08227309140
:100D8000D70130FF10C051E0282F2171213009F028
:100D900050E041E0282F2871283009F040E0541736
:100DA00011F029E0822731FF10C041E0282F217186
:100DB000213109F040E031E0282F2871283109F075
:100DC00030E0431711F029E0822794FD877E0895D3
:100DD00082389105B9F1B0F48133910509F47DC0F1
:100DE00048F48932910509F46DC08A32910509F4FD
:100DF0007BC008958533910509F45FC0893391055F
:100E000009F10895833E9105D9F138F4803E9105AA
:100E100029F1823E910579F10895863E9105D9F137
:100E2000873E910509F43EC0843E910541F520912D
:100E3000D70121FF24C08091D60184FD19C087EE1F
:100E400090E008952091D601237009F05AC02091B6
:100E5000D70123FF14C089E290E008952091D601C4
:100E600020FD38C03091D70130FF09C024FF43C0B6
:100E700090E080E008952091D60122FDF7CF0895FB
:100E80002091D60122FD3AC03091D70130FD39C002
:100E900024FFF5CFEDCF2091D60123FFF0CF24FD25
:100EA000E7CFCDCF2091D60123FD2EC03091D701C1
:100EB00031FFEECF84EE90E008952091D60125FF1A
:100EC000DECFC9CF2091D60125FD21C02091D701C9
:100ED00023FFD5CF89E390E0D2CF2091D60126FF22
:100EE000CECF8AE290E008952091D60126FFC7CFA9
:100EF00081E390E0089583EE90E0089582EE90E023
:100F0000089580EE90E0089586EE90E0089585E3E0
:100F100090E008951F93CF93DF930E94E806EC01C1
:100F2000C11580E5D807F0F5C11580E4D80708F0B1
:100F3000AAC0C03ED10520F5CD3CD10508F090C037
:100F4000C83AD10578F4C53AD10508F081C0C1305E
:100F5000D10519F1209709F1C430D105F0F4D0E0A2
:100F6000C0E01BC0C33CD105D0F7C85AD0E0CC0FBD
:100F7000DD1FC75EDE4F0990D881C02DD4640DC03F
:100F8000C11580E2D80708F0C9C0C11581E0D807B3
:100F900008F068C0C83ED10510F7CE01DF91CF91AF
:100FA0001F910895C03682E5D80718F5C03482E550
:100FB000D80708F079C0C03282E5D80708F06DC0C4
:100FC000C11582E5D80708F48FC02C2F26952695E9
:100FD00080E2289F900111248C2F8370C1E0D0E023
:100FE00002C0CC0FDD1F8A95E2F7C22BD32BDD6840
:100FF000D4CFC03C82E5D807F8F4C03A82E5D807E0
:1010000008F067C0C03882E5D80708F0A8CF2C2FB9
:1010100026952695277080E2289F900111248C2F19
:101020008370C1E0D0E002C0CC0FDD1F8A95E2F7EB
:10103000C22BD32BDA68B1CFC03E82E5D80708F0C7
:101040008ECFDC2FCC27CC27DF71C06FD06AA5CF25
:10105000C55AD0E0CA5EDE4FC881D0E0D0649DCFD3
:10106000D0659BCF8D2F0E949906182FCE0199270E
:101070000E94E806C12FD0E0DC2FCC27CC27DF71FF
:10108000C82BD92B8ACFCE0199270E94E806CC27FE
:10109000DF70C82BD92BD06A80CFCF71D0E0DC2F86
:1010A000CC27C16FD06A79CF2C2F26952695277033
:1010B00080E2289F900111248C2F8370C1E0D0E042
:1010C00002C0CC0FDD1F8A95E2F7C22BD32BDC6860
:1010D00064CF8C2F8F710E949906C82FD0E0DC2F2F
:1010E000CC27CC27DF7159CF8C2F8F710E949906A6
:1010F00055E0D695C7955A95E1F7CF70D0E0DC2F33
:10110000CC27282F30E084FF05C044E0220F331F96
:101110004A95E1F7C22BD32BD0693FCF8D2F8F712A
:101120000E949906182FCE0199270E94E806C12F28
:10113000D0E0DC2FCC27CC27DF71C82BD92BD06295
:101140002CCFE2E9F1E09191891303C0DF011197FF
:101150001C9291E0E839F907B1F70895A2E9B1E0EE
:10116000EFEF90E02D91821751F0EF3F19F421112C
:1011700001C0E92F9F5F9630A9F7EF3F09F408956A
:101180000E2E000CFF0BE057FE4F828308958091D6
:10119000870290914E02981301C008958F5F877067
:1011A000FACF292F953078F58D3068F590E03DE045
:1011B000239F800D911D1124682F677023E0969561
:1011C00087952A95E1F7FC01EE0FFF1FE80FF91F45
:1011D000E756FE4F50E040E080E0219130E0062EDF
:1011E00002C0369527950A94E2F721703327042E22
:1011F00001C0220F0A94EAF7822B4F5F5F4F433002
:10120000510559F7089580E00895292F953098F5F4
:101210008D3088F590E03DE0239F800D911D1124D5
:10122000282F277041E001C0440F2A95EAF723E0F8
:10123000969587952A95E1F7FC01EE0FFF1FE80FC1
:10124000F91FE756FE4F30E020E070E05191DF01DA
:101250001197CB01022E02C0969587950A94E2F76A
:10126000817081958527842385278C932F5F3F4F3D
:101270002330310559F708958093D5010895909151
:10128000D50121E030E0F90101C0EE0F8A95EAF7BF
:10129000D90102C0AA0FBB1F6A95E2F7EA2B01C071
:1012A000220F4A95EAF7892F8E23E81305C0292BD0
:1012B000822F0E943C09089520952923F9CF21E02F
:1012C00030E001C0220F8A95EAF720958091D50180
:1012D00082230E943C09089521E030E001C0220FE2
:1012E0008A95EAF78091D501822B0E943C090895E6
:1012F0008093C5010895662309F45DC08D3C41F4D7
:101300000E94520681958093FC010E94090608956F
:101310008E3C19F40E945206F6CF8F3C31F40E94A5
:10132000520681958093FB01F0CF803D19F40E9415
:101330005206F8CF893D29F40E9430068093FD01C2
:10134000E4CF8A3D21F40E9430068195F7CF8B3D92
:1013500031F40E94300681958093FE01D6CF8C3DFA
:1013600019F40E943006F8CF9FE2980F983070F47D
:10137000815D990B21E030E001C0220F8A95EAF7E8
:101380008091FA01822B8093FA01BFCF8D3D31F419
:101390008091F40181608093F401B7CF8E3D21F4F8
:1013A0008091F4018260F7CF8F3D09F0AECF80913C
:1013B000F4018460F0CF4091FB018D3C59F48091A1
:1013C000FC0187FF0DC01092FC0141110BC010926F
:1013D000F20108C08E3C81F48091FC0118169CF348
:1013E000442381F08091FD019091FE01892B09F049
:1013F0008CCF1092F30189CF8F3C49F447FFF0CF97
:101400001092FB018091FC018111ECCFE0CF803D77
:1014100019F41416ACF3E4CF9091FD01893D29F441
:101420001916F4F61092FD01DBCF8A3D19F497FFEF
:10143000D7CFF8CF9091FE018B3D29F497FFD0CF05
:101440001092FE01CDCF8C3D19F41916CCF3C8CF04
:101450009FE2980F983090F4815D990B21E030E085
:10146000B90102C0660F771F8A95E2F7CB0180951C
:101470009091FA0189238093FA01B2CF8D3D31F426
:101480008091F4018E7F8093F401AACF8E3D21F4E8
:101490008091F4018D7FF7CF8F3D09F0A1CF80912E
:1014A000F4018B7FF0CF9091090281FF07C091601A
:1014B0009093090281E08093E60108959E7FF8CF22
:1014C0000F931F93CF93DF938B01EA019091440216
:1014D000943061F58093E9008FEF9091E80081509E
:1014E00095FD06C095ED9A95F1F700008111F5CFB5
:1014F0008091E80085FF1AC00E949C03811111C0F1
:101500008091E80085FD06C08091E8008E77809389
:10151000E800F2CFF80181918F018093F1002197CB
:1015200079F78091E8008E778093E800DF91CF9182
:101530001F910F91089543E050E0BC0184E00E94A8
:10154000600A089546E050E0BC0184E00E94600A11
:101550000895CF93DF93EC0148E050E0BC0181E0B7
:101560000E94600A88E0FE01AAE3B2E001900D92B9
:101570008A95E1F7DF91CF910895CF93DF93C1E38F
:10158000D2E060E0CE010E9483242196C11584E060
:10159000D807B9F7DF91CF9108951F93CF93DF93C9
:1015A000122F8430E0F46530D0F44D30C0F4C42FF5
:1015B000D0E0CC0FDD1F9AE1699FC00DD11D112431
:1015C00092E8899FC00DD11D1124632FCE01899609
:1015D0000E948324612FCE018A960E948324DF918A
:1015E000CF911F910895B0E0A0E0E9EFFAE00C94EC
:1015F000D92394E6E92E94E0F92ED12C8701C12C51
:101600001CC04C2F83E021E030E0D81641F0FE01F1
:10161000EE0FFF1FE00FF11F859194919C016C2D3F
:101620008D2D0E94CD0A2196CD30D10551F7C3945E
:10163000065E1F4F85E0C81619F0D0E0C0E0E1CF8C
:10164000D39482E8E80EF11C84E0D812D7CFCDB74E
:10165000DEB7E8E00C94F523CF93C82F6FEF81112C
:1016600063E285E290E00E9483246FEFC11160E1A4
:1016700086E290E00E9483246FEFC11165E087E26B
:1016800090E00E948324CF91089580E00E942C0B6B
:1016900060E088E290E00E9483240E94F30A0E94A6
:1016A000BD0A81E00E942C0B08950F931F93CF93E6
:1016B000DF93843030F5653020F54D3010F5C42FC0
:1016C000D0E0CC0FDD1F2AE1629FC00DD11D112497
:1016D00032E8839FC00DD11D1124CE0189960E944E
:1016E0005F24082F10E0102F0027CE018A960E9459
:1016F0005F249801282BC901DF91CF911F910F9191
:10170000089590E080E0F8CF462F753040F46D30BA
:1017100030F4843020F4672F0E94550B089590E038
:1017200080E00895CF92DF92FF920F931F93CF93A3
:10173000DF936C010091D5018091C501082BC3E0B6
:10174000D0E010E0FC2EC8010C2E02C095958795C4
:101750000A94E2F780FD0CC02197A0F7F12C8F2DA1
:10176000DF91CF911F910F91FF90DF90CF9008955F
:10177000B6018C2F0E94840B0E948A07019761F3A7
:10178000EECFCF93DF93EC010E94920BBE010E943B
:10179000840B0E948A07DF91CF910895FC01248178
:1017A0002223C1F0808191810E94C10B92959F708C
:1017B000963091F058F4925F9F70923058F4803FC9
:1017C00019F030F4883E30F481E008959A5FF4CF48
:1017D000843FD1F380E00895883EB0F3813FD1F794
:1017E000F3CFA6E0B0E0E7EFFBE00C94DE23498303
:1017F0005A8349815A819923A1F0222391F0CA0189
:101800000E94920B182F682F89819A810E940509E6
:1018100069817A81812F0E94840B2696E3E00C94E3
:10182000FA23CA010E94D108182FF2CF85E290E076
:101830000E945F24833289F486E290E00E945F2454
:10184000803159F487E290E00E945F2491E0853076
:1018500009F090E0892F8170089580E0FCCF6091BD
:101860002402669570E04BE050E088E091E00E9431
:101870004524892B19F481E0809308020E94FA0420
:1018800090930202809301020895A5E0B0E0EBE49A
:10189000FCE00C94D2238091240280FD0AC0EBE08E
:1018A000F2E0118210821282339622E0E332F207D4
:1018B000C1F78090FF01909000028114910409F417
:1018C00057C080FF55C0D12CC12C66246394712C65
:1018D00053E0552E8091090293010C2C01C0220F78
:1018E0000A94EAF7822309F43BC0F601EE0FFF1FCA
:1018F000E80DF91DE590F490E114F104C9F145E01B
:1019000050E0B701CE0101960E943C2409810F3FAF
:1019100039F18A81800F9927991F8930910514F038
:1019200088E090E05C01AA0CBB1C8A0D9B1DFC01A9
:10193000E55FFD4F5F01059D80011124055F1D4F8F
:101940000A151B0520F0F5E0EF0EF11CD8CF980129
:101950004D816C818B810E9473050D5F1F4FF0CF0D
:101960002FEFC21AD20A38E0C316D10409F0B2CF61
:10197000849A31B33F7E21B320614FB7F8948BE056
:1019800092E0FC015191CF0168E021BB000000C052
:1019900057FF31BB550F000000C000C000C031BB75
:1019A00000C06A9591F7F2E083329F0751F74FBF6D
:1019B0008FE594E00197F1F700C000002596EFE075
:1019C0000C94EE230F931F93CF93DF93CBE0D2E0E1
:1019D000FE01118210821282339682E0E332F80710
:1019E000C1F710E000E080910A02082E000C990B6C
:1019F000081719078CF180911401082E000C990B1F
:101A0000801791074CF19E014091270260912602B8
:101A1000809125020E9473050F5F1F4F23960830A7
:101A2000110509F70E94450C8091130190910A025B
:101A3000980F90930A0220911401280F209314010B
:101A4000121614F497301CF0819580931301DF91E6
:101A5000CF911F910F910895198218821A82DCCFBD
:101A6000EF92FF921F93CF93DF93EC018BE0E82E70
:101A700082E0F82E10E08C8197014091270260915E
:101A80002602810F0E947305115E83E0E80EF11CAF
:101A9000183F89F70E94450C9A818C8190FF08C0FD
:101AA0008F5F8C83DF91CF911F91FF90EF9008950E
:101AB0008150F7CF9091240290FF0CC0EBE0F2E050
:101AC000818360834283339692E0E332F907C1F762
:101AD0000E94450C0895A3E0B0E0E1E7FDE00C941E
:101AE000DD238C018091230281110AC09E012F5FAA
:101AF0003F4F4FEF6FEF0E9473058A81809323025F
:101B0000F8016481613069F08091230240E066232E
:101B100061F040E0623011F44091230280E060E027
:101B200004C06091230240E080E00E945A0DF80159
:101B3000848190E0019663E070E00E94AE2384838C
:101B40002396E4E00C94F923A3E0B0E0EAEAFDE098
:101B50000C94DF239091240290FF0AC09E012F5F16
:101B60003F4F0E9473054B8169818A810E945A0D03
:101B70002396E2E00C94FB23CF93DF93EC01E4E2A5
:101B8000F2E0438162818C810E94A40D8C818F5F81
:101B90008C83DF91CF910895CF93DF93EC01EC819B
:101BA000F0E0EC59FC4F4491E4E2F2E06281818183
:101BB0000E94A40D8C818F5F8C83DF91CF9108955B
:101BC000B0E0A0E0E6EEFDE00C94D52349015A0117
:101BD0006B017C010E9464058401A4016A2D7B2DA8
:101BE00088E090E00E94952494014A2D5B2DB60177
:101BF000C70100E20E942124622F84E290E00E944B
:101C00008324CDB7DEB7ECE00C94F123A3E0B0E081
:101C1000ECE0FEE00C94D423F82ED62EE42EC22E57
:101C20009091240290FF2EC0E92FE695AE2FB0E0F0
:101C3000AF59BE4F8C91809307029E7F923031F551
:101C40009E012F5F3F4F8F2D0E9473054B8169814D
:101C50008A810E945A0DF0922502D0922602E092CB
:101C60002702CC2079F02091240260912802709103
:101C700029023F2D4D2D5E2D80912A0290912B023D
:101C80000E94E00D2396EDE00C94F023823019F4CD
:101C9000E0902702E0CF863019F4F0902502DBCFE8
:101CA0008930D9F38231B9F6E2512E2F2170722E8C
:101CB000E695F0E0E15AFC4FE4910E2F10E03BE096
:101CC000A32E32E0B32E912C812CC40123E09695F3
:101CD00087952A95E1F7711013C08F0D95014E2D50
:101CE0006D2D0E947305800E911E83E0A80EB11C1D
:101CF00023E2A21622E0B20641F70E94450CABCFC8
:101D00002F2D281B822FEACFE4E2F2E0438128E066
:101D1000421B08F440E021E0628181810E94060EAE
:101D20000895E4E2F2E0438128E0420F08F44FEF27
:101D300021E0628181810E94060E0895E4E2F2E0D2
:101D4000628128E0621B08F460E021E04381818128
:101D50000E94060E0895E4E2F2E0628128E0620F3C
:101D600008F46FEF21E0438181810E94060E0895FF
:101D7000E4E2F2E0818121E04381628188500E94A7
:101D8000060E0895E4E2F2E0818121E04381628160
:101D9000885F0E94060E089580912802882319F01A
:101DA0008150809328022091240230912502409195
:101DB0002602509127026091280270912902809199
:101DC0002A0290912B020E94E00D08958091280232
:101DD000833018F48F5F8093280220912402309181
:101DE00025024091260250912702609128027091AD
:101DF000290280912A0290912B020E94E00D089501
:101E00009091240290FF34C09170811132C0926091
:101E100090932402662391F02091240230912502B0
:101E20004091260250912702609128027091290268
:101E300080912A0290912B020E94E00D6091240271
:101E4000669570E04BE050E088E091E00E94452408
:101E5000892BB1F01092080281E08093040220E007
:101E60004091270260912602809125020E94060E71
:101E700008958D3110F09863CBCF880F982BC8CF81
:101E80000E942F0CE9CFE4E2F2E080818160808340
:101E900060E086950E94000F089580912402869547
:101EA000815009F48CE161E00E94000F0895809157
:101EB000240286958F5F8D3108F081E061E00E94F9
:101EC000000F08959091240290FF08C096959817EE
:101ED00028F0961718F40E94570F089561E00E94A9
:101EE000000F0895E4E2F2E083E0808311828FEF37
:101EF000828383831482758123E030E04FEF5FEFAC
:101F000060E0868197810E94E00D089590E080E076
:101F10000E946D24863E9E4F19F40E94160C08956F
:101F200080E008958091C4019091C301892B809332
:101F3000900148E050E06BEB71E080E991E00E9495
:101F40005224892BA9F088E0E0E9F1E0ABEBB1E0A5
:101F500001900D928A95E1F7E0912E02F0912F0207
:101F6000309731F00280F381E02D80E991E009950E
:101F70000895CF931092C401C6E0E2E9F1E0DF01D9
:101F80008C2F1D928A95E9F790E080E00E942B0546
:101F900090E080E00E9406051092C3010E94920F1B
:101FA000E9EFF1E0DF011D92CA95E9F71092F20125
:101FB0001092F3011092F4010E940906CF91089546
:101FC000AAE2B0E0E6EEFFE00C94DE2386E492E0C5
:101FD0002091F100DC012D93CD01B2E08E349B07FE
:101FE000B9F780914702833009F472C0B8F48130A8
:101FF00009F449C0823009F4B3C08091E80083FF3E
:102000008BC280914602909147029A3008F084C2B8
:10201000E92FF0E0E754FB4D0C94C2238A3009F419
:102020008EC08B3009F471C0893039F78091460237
:10203000813219F780914A0290914B02009711F07A
:102040000297D9F68091E800877F8093E80080911D
:10205000E80082FF38C09091F3008091F20002976F
:1020600031F48091F100813011F0863021F48091BB
:10207000F100809339028091E8008B778093E8002B
:102080000E94CD03BACF80914602813A09F0B5CFC4
:102090008091E800877F8093E80080914A029091C8
:1020A0004B02892B61F468E08AE392E070E00E94C1
:1020B00079048091E8008B778093E8009ECF60E000
:1020C00090E080E0F3CF809144028111C0CF95CFA2
:1020D00080914602813A09F090CF80914A02909116
:1020E0004B02892B09F089CF8091E800877F80938C
:1020F000E8008091E80080FFFCCF8091150180937B
:10210000F1008091E8008E77B9CF8091460281324C
:1021100009F073CF80914A0290914B02892B09F00C
:102120006CCF8091E800877F8093E8000E94CD0308
:1021300080914802809315010E94B90F5ECF809173
:102140004602813209F059CF8091E800877F809361
:10215000E8000E94CD0380914902809338024DCF60
:1021600080914602813A09F048CF8091E800877F4C
:102170008093E8008091E80080FFFCCF80913802D6
:10218000BECF803899F0823809F0C6C180914A02EA
:102190008F70873008F0C0C18093E9008091EB0018
:1021A00085FB882780F91092E90006C080914202E1
:1021B00090914302911182609091E800977F9093F3
:1021C000E8008093F1001092F1008091E8008E7792
:1021D0009FC1882309F48DC1823009F09DC180918F
:1021E0004802811190C180914A028F702FEF280F11
:1021F000263008F091C18093E9002091EB0020FF88
:1022000082C1933031F48091EB0080628093EB00C7
:102210007AC19091EB0090619093EB0021E030E067
:1022200001C0220F8A95EAF72093EA001092EA0093
:102230008091EB008860EACF81116EC11091480255
:102240001F778091E3008078812B8093E300809159
:10225000E800877F8093E8000E94CD038091E8002A
:1022600080FFFCCF8091E30080688093E30082E0F0
:10227000111183E0809344024FC18058823008F0EE
:102280004BC120914802309149022C3DE3E03E07CA
:10229000A1F583E08A838AE289834FB7F894DE014F
:1022A000139620E03EE051E2E32FF0E05093570018
:1022B000E49120FF03C0E295EF703F5FEF708E2F37
:1022C00090E0EA30C0F0C7968D939D932F5F243144
:1022D00059F74FBF8091E800877F8093E8006AE25A
:1022E00070E0CE0101960E9479048091E8008B771E
:1022F0008093E80011C1C096E7CF80914A02909187
:102300004B02432F55274330510509F44AC078F555
:102310004130510509F47AC08BE590E0EAEEF5E032
:102320004230510509F0F8C02091E800277F209342
:10233000E80020914C0230914D028217930708F477
:102340009C0140E02115310509F065C0411163C0D1
:102350008091E80082FDC9CF80914402882329F250
:10236000853019F28091E80083FFF2CFBECF413271
:10237000510509F43CC04232510509F0CDC083300B
:10238000910508F0C9C0FC01EE0FFF1FEF57FE4F8B
:102390000190F081E02D82589E4FDC018C9190E0FD
:1023A0001AC0332721303105D1F02115310561F0F4
:1023B0002230310509F0B0C0E7E5F6E0E4918E2F58
:1023C00090E0E7E5F6E007C0E9E7F6E0E4918E2F5C
:1023D00090E0E9E7F6E0009709F49EC0A5CFEBE6B0
:1023E000F6E0E4918E2F90E0EBE6F6E0F4CF833058
:1023F000910508F091C0880F991FFC01E957FE4F25
:102400000190F081E02D89E090E08ECF82E190E0B4
:10241000E5E4F6E089CF80914402882309F465CF92
:10242000853009F462CF8091E80083FD5ECF809112
:10243000E80082FD8DCF8091E80080FF83CF9091EE
:10244000F3008091F2002115310519F088309105D3
:1024500050F041E0089709F040E08091E8008E7765
:102460008093E8006FCF44914093F1003196215062
:1024700031090196E8CF803809F04EC08091E8001C
:10248000877F8093E800809145028093F1009DCE84
:10249000811142C0109148021230F0F58091E8009D
:1024A000877F8093E800109345020E94CD0311239B
:1024B00011F084E005C08091E30087FDFACF81E050
:1024C0008093440242E061EC81E00E94EC0342E22E
:1024D00061EC84E00E94EC0342E261EC82E00E9445
:1024E000EC0342E260EC83E00E94EC038091440242
:1024F00013C080914802813079F481E0933009F073
:1025000080E0809343021092E9008091E800877F89
:102510008093E8000E94CD038091E80083FF0AC009
:102520008091E800877F8093E8008091EB008062D3
:102530008093EB00AA96E3E00C94FA230E94B90F73
:102540002FEF84E39CE0215080409040E1F700C0F1
:10255000000088E19AE00FB6F894A8958093600097
:102560000FBE90936000FFCF882341F0809590913B
:10257000C40189238093C4010E94920F0895882387
:1025800039F09091C401982B9093C4010E94920F4E
:102590000895882309F45DC0823879F40E945005BB
:1025A00081FF57C089E30E94AE080E94920F89E321
:1025B0000E94A1080E94920F0895833859F40E9446
:1025C000500580FF46C083E50E94AE080E94920F2E
:1025D00083E5EECF843859F40E94500582FF39C05C
:1025E00087E40E94AE080E94920F87E4E1CF9CEF3F
:1025F000980F913AE8F290E2980F983088F487703B
:1026000021E030E0A90102C0440F551F8A95E2F78E
:10261000CA0180959091C40189238093C401CACFD7
:102620009BE5980F933028F490E080E00E942B0502
:10263000089598E5980F9B3128F490E080E00E947F
:102640000605089593E3980F933118F460E00E9413
:102650007B090895CF93C82F8823C9F08238C9F425
:102660000E94500581FD13C089E30E94AE080E94BC
:10267000920F2FEF87EE93E0215080409040E1F7DA
:1026800000C0000089E30E94A1080E94920FCF9130
:1026900008958338A1F40E94500580FDF8CF83E5AA
:1026A0000E94AE080E94920F2FEF81EE94E021501D
:1026B00080409040E1F700C0000083E5E4CF84381B
:1026C000A1F40E94500582FDE2CF87E40E94AE088B
:1026D0000E94920F2FEF81EE94E0215080409040B5
:1026E000E1F700C0000087E4CECF8CEF8C0F813A79
:1026F00070F4E2E9F1E088E991E02191C217E1F19B
:102700008E179F07D1F78C2F0E94AE08BECF80E2B4
:102710008C0F883068F4C77021E030E001C0220FD0
:10272000CA95EAF78091C401822B8093C401ADCF92
:10273000EBE5EC0FE33040F4F0E0EA5EFE4F808121
:1027400090E00E942B05A3CFE8E5EC0FEB3150F4AD
:10275000F0E0EE0FFF1FE75EFE4F808191810E9447
:10276000060595CF83E38C0F833108F090CF61E0AD
:102770008C2F0E947B098BCF8C2F0E94A1080E9476
:10278000920FC1CF1F93CF93DF93182FD0E0C0E0FB
:10279000893311F4C0E5D0E0812F0E942A132097DD
:1027A00039F4812F0E94C912DF91CF911F910895B2
:1027B0008FE99FE00197F1F700C000002197EFCF6C
:1027C0000F931F93CF93DF93C62FD42F022FFC01BB
:1027D00085818823A9F060938A020E94FA0490936D
:1027E000890280938802C77081E001C0880FCA9572
:1027F000EAF70E94BF12DF91CF911F910F910895C8
:1028000080918A02681332C0809188029091890277
:102810000E94EB04883C910548F510E21D0FCD178E
:10282000B9F080E28C0F883040F4C77081E001C0BD
:10283000880FCA95EAF70E94B412183048F481E074
:102840009D2F977001C0880F9A95EAF70E94BF12DA
:10285000802F0E94C213183070F6D77081E001C03B
:10286000880FDA95EAF70E94B412C5CFC77081E0ED
:1028700001C0880FCA95EAF7F6CFA8E0B0E0E3E41C
:10288000F4E10C94D3237C01DC0114968C91149711
:10289000882309F4A4C021E04C9111965C91119712
:1028A00012966C91129713967C91139715969C91A2
:1028B0000E94F10B8C01F7019581992309F422C143
:1028C000980137572038310508F07CC4003108F0F2
:1028D00086C08FEF93E00E945F24811180C091E356
:1028E000E92E92E0F92E011147C0FE01339686E0F1
:1028F000DF011D928A95E9F78AE0682E87010F5F54
:102900001F4FC7010E945F2489831A82882309F41C
:1029100066C0813009F067C06701B2E0CB0ED11C00
:10292000C8010E945F248A83882309F458C09FEF5E
:10293000980F933078F5E3E0EE0EF11CC6010E948B
:102940005F248B83882309F44AC01C828E010F5FA9
:102950001F4FD8012C91222389F2213009F07DC02C
:1029600011969C91119712968C919130F1F50E5F12
:102970001F4F0E94C2133FC0E114F4E0FF0679F13B
:10298000C7010E945F24811101C001502FEFE21A9C
:10299000F20AA9CF76018430C9F602E010E0760190
:1029A000FFEFEF1AFF0AC6010E945F24E1E0F0E0AA
:1029B000EC0FFD1FE00FF11F8083882381F08C371F
:1029C00041F4E2E0F0E0EC0FFD1FE00FF11F108298
:1029D000BDCF0F5F1F4F67010730110501F7289624
:1029E000EEE00C94EF237801B1CF923039F40E5F12
:1029F0001F4F0E942A130F5F1F4FABCF933029F454
:102A00000E5F1F4F0E94C912F6CF943019F00F5F6E
:102A10001F4FF1CF0E5F1F4F30E020E0B8016F5F16
:102A20007F4FF80141818053990B8A30910550F016
:102A30002150310900F38FE99FE00197F1F700C0C1
:102A40000000F6CF629EF001639EF00D11249C0100
:102A50002E0F3F1F842F8B01E1CFE22FF0E0E453D4
:102A6000FE4F7490822F86958695869590E0FC01A6
:102A7000E454FE4FC4902770D12C022E02C0D5948E
:102A8000C7940A94E2F7A1E0CA22DD24FC01E455D0
:102A9000FE4FA490B12C022E02C0B594A7940A94C4
:102AA000E2F7B1E0AB22BB24FC01E456FE4F849078
:102AB000912C02C0959487942A95E2F7E1E08E224A
:102AC0009924C114D10419F081EE0E942A13A11493
:102AD000B10419F086EE0E942A13872D0E94C213BA
:102AE000A114B10419F086EE0E94C912C114D104D8
:102AF00019F081EE0E94C9128114910409F47BCF70
:102B00008CE237CFF801E851FC47E730F10508F0D7
:102B100046C3ED53FB4D0C94C22326E241EE61EE19
:102B2000C7010E94E0135BCF27E245EE65EEF8CFC8
:102B300026E241EE60EEF4CF27E245EE64EEF0CF00
:102B400026E241EE62EEECCF27E245EE66EEE8CFFC
:102B500028E241E0EBCF8091D60181608093D601DD
:102B600095C08091D70188608093D7018FC08091F4
:102B7000D6018260F3CF8091D6018460EFCF80913F
:102B8000D6018860EBCF8091D7018160EDCF809135
:102B9000D7018260E9CF8091D6018061DFCF80913B
:102BA000D6018062DBCF8091D6018064D7CF0E94AE
:102BB000B90F8091D6018068D1CF8091D6018C6009
:102BC000CDCF8091D7018360CFCF8091D6018E7F0A
:102BD000C5CF8091D701877FC7CF8091D6018D7FE8
:102BE000BDCF8091D6018B7FB9CF8091D601877FF1
:102BF000B5CF8091D7018E7FB7CF8091D7018D7FE0
:102C0000B3CF8091D6018F7EA9CF8091D6018F7DE1
:102C1000A5CF8091D6018F7BA1CF0E94B90F809163
:102C2000D6018F779BCF8091D601837F97CF8091FC
:102C3000D7018C7F99CF8091D60182FB992790F99B
:102C400021E0922790FB82F990FB83F987CF809156
:102C5000D701982F909591708E7F892B90FB81F9E9
:102C600083CF9091D601892F8F7B96FF806476CF9A
:102C70000E94B90F9091D601892F97FB87F9805850
:102C80006DCF61E08EE090E00E9483246091D601D8
:102C90007091D70184E090E00E94A1240E94B90FB6
:102CA0009ECE60E0EFCF9091D601892F8F7E94FF6A
:102CB000806154CF9091D601892F8E7F90FF8160E3
:102CC0004DCF9091D701892F877F93FF88604CCF9C
:102CD00085E360C280919801811104C089E20E945D
:102CE000A1085AC285E3FBCF0737FCE71F0709F0AD
:102CF00020C281E00E946C0943E062E081E00E9412
:102D00003F096DCE8091240280FF19C0282F2E7FAD
:102D100020932402309125024091260250912702EF
:102D2000609128027091290280912A0290912B02D1
:102D30000E94E00D109208020E94450C50CE816066
:102D40008093240261E086950E94000F48CE4DE4F6
:102D50005FE067E57FE00E945D0541CE47E55FE00B
:102D60006DE47FE0F8CF48EB5EE062EC7EE0F3CF0D
:102D700042EC5EE068EB7EE0EECF4EE95EE06BEAAF
:102D80007EE0E9CF4BEA5EE06EE97EE0E4CF44E826
:102D90005EE061E97EE0DFCF41E95EE064E87EE08D
:102DA000DACF4CEC5EE066EE7EE0D5CF46EE5EE03C
:102DB0006CEC7EE0D0CF61E081E0C6CF65E082E0E0
:102DC0000E94620F0CCE68E086E0FACF6EE089E0E8
:102DD000F7CF61E18FE0F4CF6BE182E1F1CF61E009
:102DE0008CE1B2CF07372CE7120759F108373CE7DF
:102DF000130759F1D7010D911C91992381F1C80155
:102E00000E94920BD82E682FC8010E940509B801B4
:102E10008D2D0E94840B0E948A07182FB82EF7016F
:102E20006581268122952F70892F82958F70C82EFB
:102E3000D12C8C3008F04BC0F601E653FB4D0C94BE
:102E4000C22381E00E945F0957CF82E0FBCF6FEF82
:102E50007FEF90E080E00E94A1240E949E12C801B2
:102E60000E94D108D82ED3CF092F0F70907F11F078
:102E70000295007F812F6623C9F0002369F090E25C
:102E8000910F983010F011110BC08091C401082BE4
:102E90000093C4010E94920F812F0E942A1317C031
:102EA0008091C301082B0093C301F4CF0E94C91283
:102EB000002369F00095105E183010F0B1101DC0AD
:102EC0008091C40108230093C4010E94920F98E0EE
:102ED000C91AD108A4E0CA16D10420F40E945005F2
:102EE0000E94530A20E0F701408151816281738181
:102EF000848195810E94F10B72CD8091C3010823DA
:102F00000093C301E2CF892F8F70907F903211F030
:102F10008295807FF1E0BF120CC0662329F0263035
:102F2000B0F60E94BF12D3CF253088F60E94B412AB
:102F3000CECF662319F02223A1F3AECF2223B1F323
:102F4000193309F0EFC02FEF37EE83E02150304006
:102F50008040E1F700C00000E5C0892F8695869586
:102F6000837061F0813009F0B2CF812F93706111CD
:102F700002C080E090E00E940605A9CF812F9370E7
:102F8000611102C080E090E00E942B05A0CF812F4C
:102F90000E947B099CCF892F8370A1F5611197CF87
:102FA000812F829586958770880F880F412F4F70EB
:102FB000082E01C0440F0A94EAF7212F207114FF54
:102FC00007C02FE030E001C0220F8A95EAF7209574
:102FD000969596959370923081F0822F842B933042
:102FE00030F48091C501913029F0242B82230E9476
:102FF00078096DCF842B822BFACF242B8091C501C9
:103000008227F5CF8695662311F0892F817088235A
:1030100009F45DCF812F829586958770880F880F80
:10302000412F4F70082E01C0440F0A94EAF7212F58
:10303000207114FF07C02FE030E001C0220F8A95F5
:10304000EAF72095969596959370923081F0822FAD
:10305000842B933030F48091D501913029F0242BCA
:1030600082230E943C0933CF842B822BFACF242B5E
:103070008091D5018227F5CF092F0F70662329F0A3
:10308000802F0E946C09812F4CCF812F0E94B41297
:10309000802F0E945F091BCF812FA1EF1A1789F1A2
:1030A000A11750F0B0EF1B17B9F06623B1F1211151
:1030B000F3CE892F8F7129C0E2EF1E1749F1F3EF8C
:1030C0001F13F3CF80E0662361F29F7181E001C09E
:1030D000880F9A95EAF7C5CF662379F0253008F076
:1030E000F6CE292F2F7181E090E001C0880F2A953C
:1030F000EAF79091D5018927B4CF263008F0E7CEC2
:10310000F0CF892F8F71662321F20E946C09DFCEE8
:10311000892F8F716623C9F3BCCF222339F08933FD
:1031200009F411CF812F0E94C912D1CE892F8F713E
:10313000B0CF82E00837FCE71F0709F4DBCD013090
:103140008CE7180709F489CE0330ACE71A0709F4B5
:103150007ECE01151C4709F04DCE0E94B90FEFEF4E
:10316000F4E32CE0E150F0402040E1F700C0000023
:103170000E94DA0406312CE7120709F0B5CD8091E0
:10318000C4018A7A91E009F490E09093980181114A
:103190009FCD89E20E94AE080E94920F20CC06319A
:1031A0003CE7130709F496CD8091C4018272F801BF
:1031B000E052F847E531F10508F014CEEA52FB4D34
:1031C0000C94C223F801E851FC47E730F10508F4FC
:1031D000A0CC10928A02980130572332310550F664
:1031E00084E090E00E946D249093D7018093D601F3
:1031F000F801E150F047E232F10508F0ACCCE551BE
:10320000FB4D0C94C223CF93DF938091BA01807F52
:1032100009F04DC08091B901882309F448C0E091BC
:10322000870250914E02C091B501D091B4016091D6
:10323000B6017091B70147E05E17C9F18E2F90E09B
:10324000E49FF0011124E15BFD4F2481222391F1E1
:10325000489FF001499FF00D1124DF01A15BBD4F94
:1032600011962C9111972C1325C02C912D1322C04F
:1032700015962C91159721111DC012962D913C91F8
:10328000261B370B283C3105A8F48091BA018F70BA
:1032900080618093BA01EB5AFD4F80818F7080610D
:1032A000808384EB91E00E943D140E94C708DF9167
:1032B000CF910895FC013196E770BECFA4E1B0E054
:1032C000E4E6F9E10C94D5238C0186E0F801DE01F7
:1032D0001F9601900D928A95E1F7F8018481E580AF
:1032E00094EBA92E91E0B92E9091B801911128C0CC
:1032F000882319F1EE20F1F0C8010E94CE0BF82EC0
:103300008823C1F087E0F801D50101900D928A95DC
:10331000E1F78091B801813031F48091B40190914E
:10332000B5010E94C10B0E9403198F2D6496ECE039
:103330000C94F123C8010E943D14FF24F394F5CFAF
:10334000D080C18082809380F090B9012091B60135
:103350003091B701A401421B530BFF2009F4D9C0DF
:10336000483C510508F092C08823F9F29091B501CC
:103370008091BA01282F207F09F056C0C91214C0CD
:103380009091B401D91210C0E11048C08F708061D3
:103390008093BA0184EB91E00E943D148091BA01C0
:1033A000F8018683F12CC1CFE11038C06C2D8D2D32
:1033B0000E945E036C2D8D2D0E945E03E82E81110C
:1033C000F1CFDF86C88A8F8598890E94C10B292F8B
:1033D00022952F70243058F49F70223088F0992362
:1033E00099F0F8019681907F79F4FE2C9ECF2A5FA8
:1033F0002F70223068F0C8010E943D14EF2CF5CFE9
:10340000992311F0882389F3805E883070F3F3CF1D
:10341000803F58F3815F833070F7E7CF8091BA0126
:1034200081608093BA01BECFC91207C09091B401E8
:10343000D91203C0EE2009F48DC0C8010E94CE0B42
:10344000882309F477CFEE2009F474CF8091BA0174
:10345000803288F02091B4013091B50139872887F6
:103460009B868A869091B8019C871D868E87CE01A7
:1034700008960E943D1487E0F801A4EBB1E00190AA
:103480000D928A95E1F70E94031957CF9091BA01E6
:10349000292F207F51F484EB91E00E943D1487E0B6
:1034A000F50111928A95E9F77DCF882309F43DCF84
:1034B0008091B5018C1110C08091B401D8120CC05C
:1034C000E1100AC09683C8010E943D1487E0F5010F
:1034D00011928A95E9F729CFC8010E94CE0B882363
:1034E00009F428CFEE2009F425CF8091BA0180326B
:1034F00010F22091B4013091B5013A8329839C8266
:103500008B829091B8019D831E828F83CE0101969C
:10351000B0CF483C5105D0F6882309F40ECFFE2CDD
:10352000EE2009F407CF8091B5018C1120C0809165
:10353000B401D8121CC08091BA0180FD0FC0982F31
:10354000907F61F08683903F31F0982F907F905F5D
:103550008F70892B8683C8010E943D1487E0F80193
:10356000A4EBB1E001900D928A95E1F7DECEC8019F
:103570000E94CE0B81117FCF8091BA018160809330
:10358000BA01C8010E943D14D0CEABE1B0E0EBEC33
:10359000FAE10C94DD234E8B5F8B688F798F8A8FD5
:1035A0009B8F192F91111092C3011D8A86E0FE0195
:1035B0007696DE011F9601900D928A95E1F70A8DAD
:1035C000002341F021E04F85588969897A89C80133
:1035D0000E94F10B0B8B1C8B87E0FE013F96DE01F6
:1035E000189601900D928A95E1F7CE0108960E94F7
:1035F0005E1981110CC087E0FE013896DE0111963C
:1036000001900D928A95E1F78C8581110BC017E02E
:103610008091870290914E02891331C06B96E4E04D
:103620000C94F92320914E0230E0C9010196877075
:103630009927409187024817190699F097E0929FC1
:10364000D001939FB00D1124A15BBD4FFE013196B7
:1036500001900D929A95E1F780934E020E94C7085F
:10366000D6CF0E94B90F10924E021092870287E0C7
:10367000E4EBF1E0DF011D928A95E9F7C8CF819F65
:10368000C0011124815B9D4F0E945E19882331F295
:103690008091870290E00196877099278093870236
:1036A000B7CFA6E0B0E0E7E5FBE10C94DD230E9494
:1036B000FA048C018091C6019091C701801791078F
:1036C00081F019821A820E94FA04682F49815A8176
:1036D000792F80E090E00E94C51A1093C7010093F3
:1036E000C6012696E4E00C94F923AAE0B0E0EBE7EB
:1036F000FBE10C94D5238E010F5F1F4F8AE0F80188
:1037000011928A95E9F79FE4E92E91E0F92E68017C
:10371000AA24A394B12CF70181917F018F3F09F472
:1037200046C0F894E82FE295EF70F0E021A18F7089
:10373000A50102C0440F551F8A95E2F7CA01922FD6
:10374000982B91A392A18095892382A3789400C09D
:10375000E4E5F1E021E030E0912C812C41914F3FF4
:1037600009F467C0A42FA295AF70B0E090968C9139
:1037700090E04F7002C0959587954A95E2F780FDDD
:1037800058C0C901882A992A220F331F51E0E13617
:10379000F50721F7F701319780818F3F11F00E94E3
:1037A000820680EA8A95F1F7F60191828082F2E042
:1037B000CF0ED11C44E5E41641E0F40609F0ABCF8E
:1037C0004AE050E0B8018BEC91E00E945224892B32
:1037D00099F18AE0F801ABECB1E001900D928A9585
:1037E000E1F781E08093CA010E94FA049093C90135
:1037F0008093C8018091C8019091C9010E94EB0497
:103800000597F0F04AE050E06BEC71E088EE91E053
:103810000E945224892BC9F08AE0EBECF1E0A8EE7B
:10382000B1E001900D928A95E1F781E01092CA0112
:1038300008C090E080E0A6CF8091CA018111DACF64
:1038400080E02A96ECE00C94F12380E0EFCFA8E032
:10385000B0E0EDE2FCE10C94DF2366EE7EEF90E059
:1038600080E00E94A12460E082E090E00E94832436
:1038700060E083E090E00E9483241092C50160E044
:1038800074E184E090E00E94A12460E086E090E092
:103890000E9483246FEF87E090E00E94832440E041
:1038A00050E0BA0188E090E00E94952460E084E254
:1038B00090E00E94832460E087E190E00E948324EE
:1038C00060E08CE090E00E94832460E08DE090E076
:1038D0000E94832419821A821B821C821D821E82EE
:1038E0001F82188648E050E068E170E0CE01019642
:1038F0000E94732440E050E0BA0180E290E00E9410
:10390000952480E00E942C0B0E94450B40E050E083
:10391000BA018FE090E00E94952440E050E0BA01A7
:1039200083E190E00E9495242896E2E00C94FB232A
:103930001F920F920FB60F9211242F933F934F9324
:103940005F936F937F938F939F93AF93BF93CF9327
:10395000DF93EF93FF93D091E900DF708091EC004B
:10396000C82FC17080FDC0E81092E9008091F0007E
:10397000877F8093F00078940E94E00F1092E90016
:103980008091F00088608093F000CD2BCF70C093C1
:10399000E900FF91EF91DF91CF91BF91AF919F919E
:1039A0008F917F916F915F914F913F912F910F90E8
:1039B0000FBE0F901F9018951F920F920FB60F9287
:1039C00011242F933F934F935F936F937F938F9324
:1039D0009F93AF93BF93EF93FF938091E10082FF9A
:1039E00009C08091E20082FF05C08091E1008B7FD9
:1039F0008093E1008091DA0080FF24C08091D8009C
:103A000080FF20C08091DA008E7F8093DA00809161
:103A1000D90080FF9DC080E189BD82E189BD09B4E4
:103A200000FEFDCF81E08093440280913702811136
:103A300009C00E947D030E941E048091E200846000
:103A40008093E2008091E10080FF17C08091E20046
:103A500080FF13C08091E2008E7F8093E20080910E
:103A6000E20080618093E2008091D80080628093C0
:103A7000D80019BC85E0809344028091E10084FF66
:103A80002BC08091E20084FF27C080E189BD82E1E4
:103A900089BD89B5982F917080FFFBCF8091D800A8
:103AA0008F7D8093D8008091E1008F7E8093E1002C
:103AB0008091E2008F7E8093E2008091E20081603D
:103AC0008093E20080914502882309F447C084E096
:103AD00080934402809144028091E10083FF27C0DB
:103AE0008091E20083FF23C08091E100877F809373
:103AF000E10082E080934402109245028091E1004F
:103B00008E7F8093E1008091E2008E7F8093E200BF
:103B10008091E20080618093E20042E060E080E01A
:103B20000E94EC038091F00088608093F000FF9188
:103B3000EF91BF91AF919F918F917F916F915F9125
:103B40004F913F912F910F900FBE0F901F9018959E
:103B500019BC109244021092370274CF8091E30096
:103B600087FD93E090934402B5CF78941F921FB6DF
:103B70001F9211248F939F93AF93BF938091330231
:103B800090913402A0913502B09136020196A11DA8
:103B9000B11D8093330290933402A0933502B09309
:103BA0003602BF91AF919F918F911F901FBE1F90C2
:103BB00018951F921FB61F9211248F939F93AF9356
:103BC000BF9380913202811113C080913302909192
:103BD0003402A0913502B09136024196A11DB11D6B
:103BE0008093330290933402A0933502B09336024F
:103BF000BF91AF919F918F911F901FBE1F901895FD
:103C0000CDB7DEB7A6970FB6F894DEBF0FBECDBF17
:103C100085B7806885BF85B7806885BF84B7877F93
:103C200084BF0FB6F894A895809160008861809356
:103C30006000109260000FBE80E890E00FB6F8942C
:103C400080936100909361000FBE80E896E09093AE
:103C50008F0180938E010E947D030E941E0480913B
:103C6000E20084608093E20078948091440288238B
:103C7000A1F01091E9001F709091EC00892F8170E4
:103C800090FD80E8182B1092E9008091E80083FDF8
:103C90000E94E00F1F701093E90082E084BD93E062
:103CA00095BD9AEF97BD80936E000E94160C81110E
:103CB00002C00E94450B0FE411E0D8018D918D01E7
:103CC0008F3F11F00E948206B1E004351B07A9F76F
:103CD00004E511E0F80181918F018F3F11F00E94FE
:103CE0008206F1E001361F07A9F78AE0E8EEF1E06D
:103CF000DF01282F1D922A95E9F7EBECF1E0DF01B7
:103D00001D928A95E9F70E94860F811102C00E94D8
:103D1000271C82E090E00E945F248093DB0184E016
:103D200090E00E946D249093D7018093D6010E9469
:103D3000751BBFEFE6E7F1E0B150E040F040E1F77E
:103D400000C000000E94751B8091E80180FF08C040
:103D50006FEF7FEF90E080E00E94A1240E94DA04E0
:103D600083E090E00E945F240E9478098091D8014E
:103D7000811173C00E94860F811104C00E94271C0C
:103D80000E94720F88E090E00E9467244B015C0162
:103D900084E290E00E945F24282F30E040E050E071
:103DA00060E070E080E090E000E20E9406242829B4
:103DB00039294A295B292093240230932502409314
:103DC0002602509327026093280270932902809361
:103DD0002A0290932B022E7F89F50E94720F88E0B1
:103DE00090E00E9467246B017C0184E290E00E94D5
:103DF0005F24282F30E040E050E060E070E080E099
:103E000090E00E940624B22FA32FF42FE52F5B0130
:103E100097018601BC29A12BFE29E32BB093240234
:103E2000A0932502F0932602E093270260932802D4
:103E3000B092290280932A0290932B020E9464057B
:103E4000109208028091240280FF04C060E08695F1
:103E50000E94000F81E08093D8018CE492E090935F
:103E600000028093FF0180E091E090932F02809305
:103E70002E0238E1632E712C55245394442443942C
:103E80008091440200E112E1853009F4AFC00E9444
:103E9000751B9CEDA92E91E0B92E28EE822E21E013
:103EA000922E46EE51E0D401F501219131918D9190
:103EB0009D914E175F0709F4AEC028173907A9F383
:103EC000312CD4010D911D914D01F501C190D1907E
:103ED0005F01C016D10661F1C026D126212CEE2447
:103EE000E394F12CC6018E219F21892BB9F029A2E0
:103EF0003AA20E94FA049CA38BA3F1E0FDA391E0F7
:103F000098012E213F21232B09F490E09EA349A183
:103F10005AA16BA17CA18DA10E94C51A2394EE0C1D
:103F2000FF1C2DE02212DECFF501329711830083B2
:103F3000339485E03812C5CF8FB7F894409133029F
:103F40005091340260913502709136028FBF69C082
:103F500080914402843009F438C080E00E94530A02
:103F6000109208028091DA0181110DC04092DA01AD
:103F700080912402982F91709093D9018E7F809325
:103F800024020E94450C1092320220E40FB6F894ED
:103F9000A895609260000FBE2093600083B7817F78
:103FA000846083BF83B7816083BF7894889583B72B
:103FB0008E7F83BF0FB6F894A895809160008861CA
:103FC00080936000109260000FBE809143028823AE
:103FD00069F00E94751BE8EEF1E081919191892BC7
:103FE00009F07AC381E0E23FF807B9F78091440213
:103FF000853009F4ADCF0E94B90F0E9450050E9490
:10400000530A1092DA018091D90181110E94430F65
:104010000E942F0C3CCF2817390709F051CF0E947E
:10402000511B809108028823D1F180910702E09111
:104030002402E695E81BE0930302823009F057C1A1
:10404000F0E0E55AFD4FE4910E2F10E0ACECEA2EC3
:10405000ADE0FA2E80910402882361F010920402F0
:104060000E94FA04909302028093010210920602C9
:10407000109205020E94FA04E0910102F0910202FE
:104080008E1B9F0B8F3F9F4750F4E00FF11FF09363
:104090000202E093010281E092E0F701099580912C
:1040A000E601882361F01092E601809108028111F7
:1040B00006C08091240260E086950E94000F86E091
:1040C000E9EFF1E0DE01119601900D928A95E1F79A
:1040D000D090FA011091FB010091FC01E090FD01EC
:1040E000F090FE011092FB011092FC011092FD0174
:1040F0001092FE01812F802B09F445C08091F701B9
:104100009091F8010E94EB049C019091F201992397
:1041100009F40BC325313105B0F19F3F19F09F5FC2
:104120009093F201112359F00E9452069FEF11164D
:104130000CF491E0899F802D11248093FB010023D2
:1041400059F00E94520691E010160CF09FEF899FE3
:10415000802D11248093FC018091FB01882399F02C
:10416000C090FC01CC2079F00E947206882309F4EB
:10417000F8C08093FB018C2D0E947206882309F4FD
:10418000F3C08093FC018F2D8E2909F445C08091E6
:10419000F5019091F6010E94EB049C019091F301CE
:1041A000992309F4BDC221353105B0F19F3F19F0C3
:1041B0009F5F9093F301EE2059F00E9430069FEF2D
:1041C0001E140CF491E0899F802D11248093FD0131
:1041D000FF2059F00E94300691E01F140CF09FEF71
:1041E000899F802D11248093FE018091FD018823F9
:1041F00099F0E090FE01EE2079F00E94720688238B
:1042000009F4B5C08093FD018E2D0E9472068823AB
:1042100009F4B0C08093FE018091FA018D1117C09E
:104220008091FB01882311F0181311C02091FC012B
:10423000222311F002130BC09091FE01992311F07B
:10424000F91205C03091FD01332309F45BC20E94CD
:10425000090686E0FE013196A9EFB1E001900D92CA
:104260008A95E1F70E9450059091E701891779F04E
:104270008093E7019FB7F894409133025091340244
:1042800060913502709136029FBF0E94530A80915F
:104290004402843009F0F4CD83E08093E9008091FA
:1042A000E80082FFEDCD8091E80090E085FF0CC032
:1042B0000E949C0340E2E42EF12C8E010F5F1F4F01
:1042C000882309F464C091E08091E8008B778093A3
:1042D000E800992309F4D4CD8981EFEFE80FE331A9
:1042E00008F06EC0F0E0E35FFA4D0C94C223863014
:1042F00059F4F0E0E85AFD4FE4910E2F10E0FCEB8A
:10430000EF2EFDE0FF2EA6CE893061F4E695F0E0B9
:10431000EB5AFD4FE4910E2F10E0E0E3EE2EEDE0BE
:10432000FE2E98CE8F3059F4F0E0EE5AFD4FE49116
:104330000E2F10E072EEE72E7CE0F72E8BCE00ED14
:1043400017E053E6E52E55E0F52E8C3109F082CECC
:10435000E0E5F2E0059114916BE6E62E6DE0F62EB5
:1043600079CE5092FB0107CF5092FC010CCF5092B6
:10437000FD014ACF5092FE014FCF8091F100D8014C
:104380008D938D01B1E0EB1AF10809F49CCF809177
:10439000E80085FDF2CF8091E8008B778093E800FC
:1043A0000E949C03882399F38ECF1A828CE08B8322
:1043B00024C08A81823009F4AAC128F4813061F0D6
:1043C0008FEF89831AC0833009F18430C9F71B82CB
:1043D0001C821D821E8211C02FB7F8946091330297
:1043E0007091340280913502909136022FBF0E9465
:1043F000C8236B837C838D839E8340E250E0BE01A3
:104400006F5F7F4F82E00E94600A3ACD2B81822F3E
:1044100090E0FE013196225F8530910570F7DC0156
:10442000AA0FBB1FA851BE4F3C9111964C914383DC
:104430003483019632962813EFCFDFCF8A81823002
:1044400089F0853009F0BCCF8091240280FF15C02F
:10445000809124028E7F80932402109208020E9491
:10446000450CCBCF6B817C818D819E810E94C823BE
:1044700088E290E00E948324C0CF0E94430FBDCF0A
:104480004C816B818A810E94550B98278927982738
:104490009E838D83B2CF2D813E8132272327322701
:1044A0004C816B818A810E94CD0AA7CF0E94F30ABA
:1044B000A4CF9A81923009F083CF8830B1F189304E
:1044C00009F45EC08B81823009F1A8F4813009F0D3
:1044D00094CF8C81EFEF8E9FC00111246FEF70E0BD
:1044E0000E949A23462F20E06091260280912502A7
:1044F0000E94060E82CF8330A1F0843009F07DCF78
:1045000020E0409127026D818C81F2CF8C8188233D
:1045100009F49ECF0E94430F60E08C810E94000F3F
:104520006CCF8C818093280268CF8B818230E1F040
:1045300078F4813009F061CF80912702FFEF8F9FDF
:10454000C00111246FEF70E00E949A236C8355CF55
:10455000833099F0843009F050CF809125028C830C
:10456000809126028D8349CF8091240280FF03C071
:1045700086958C8342CF80E0FCCF80912802F9CFD2
:104580002091240230912502409126025091270269
:10459000609128027091290280912A0290912B0249
:1045A0000E94E00D2ACF80E18A8327CF5A828FECC8
:1045B000FECE0A811B81102701271027CE0101960C
:1045C0007C01CC80DC01AC0DB11D6D01C8018F5C9C
:1045D0009D4FEC14FD0409F410CF0F3CB1E01B0714
:1045E00050F40E945F24F70184830F5F1F4FBFEFD9
:1045F000EB1AFB0AEBCFD70114961C92F6CF0A8177
:104600001B81102701271027FE0131966F01EC80D6
:10461000E00EF12EF11CC8018F5C9D4F0E151F0599
:1046200009F4EBCE0F3CF1E01F0728F4D6011496F5
:104630006C910E948324BFEFCB1ADB0A0F5F1F4FE0
:10464000EACF0E94BD0AD9CE84E0AECF0A811B8199
:10465000102701271027FE0131967F01CC80CF0162
:104660008C0D911D6C01C8018996CE14DF0409F4EC
:10467000C4CE0830A2E01A0750F40E945F24F7016C
:1046800084830F5F1F4FBFEFEB1AFB0AECCFD701FC
:1046900014961C92F6CF0A811B8110270127102740
:1046A000FE0131966F01EC80E00EF12EF11CC80185
:1046B0008996E016F10609F4A0CE0830F2E01F0753
:1046C00028F4D60114966C910E948324BFEFCB1A74
:1046D000DB0A0F5F1F4FEBCF09BD19BD09B400FE08
:1046E000FDCF8091D8008F7D8093D8008091E0002D
:1046F00082608093E0008091E00081FDFCCF0E9409
:10470000B90F74CC822B892B09F4A3CDA0CD88E2FC
:1047100090E00E945F241B821C821D828E836DCEDE
:104720002B30310508F044CD77CD2B30310508F022
:10473000F6CC29CDAA1BBB1B51E107C0AA1FBB1F8A
:10474000A617B70710F0A61BB70B881F991F5A951D
:10475000A9F780959095BC01CD01089597FB072E90
:1047600016F4009407D077FD09D00E949A2307FC25
:1047700005D03EF4909581959F4F08957095619571
:104780007F4F0895EE0FFF1F0590F491E02D0994DF
:1047900069279627692778278727782708952F92F2
:1047A0003F924F925F926F927F928F929F92AF92C1
:1047B000BF92CF92DF92EF92FF920F931F93CF930E
:1047C000DF93CDB7DEB7CA1BDB0B0FB6F894DEBFA5
:1047D0000FBECDBF09942A88398848885F846E84CB
:1047E0007D848C849B84AA84B984C884DF80EE8015
:1047F000FD800C811B81AA81B981CE0FD11D0FB61E
:10480000F894DEBF0FBECDBFED010895002E083035
:1048100090F0982F872F762F652F542F432F322F0C
:1048200022270850F4CF220F331F441F551F661F45
:10483000771F881F991F0A95B2F7002D089597FDDD
:104840001094002E083098F00850232F342F452F55
:10485000562F672F782F892F912DF4CF1594979588
:1048600087957795679557954795379527950A9535
:10487000AAF71124002D0895FB01DC0102C0059068
:104880000D9241505040D8F70895FC0141505040DE
:1048900030F001900616D1F73197CF01089588279F
:1048A00099270895FB01DC0104C08D9101908019C6
:1048B00021F441505040C8F7881B990B0895F9998D
:1048C000FECF92BD81BDF89A992780B50895A6E1E3
:1048D000B0E044E050E00C94A924A8E1B0E042E04C
:1048E00050E00C94A924DC01A40FB51F41505040A6
:1048F00048F0CB01840F951F2E910E9484244150D3
:104900005040D0F70895262FF999FECF92BD81BD72
:10491000F89A019700B4021639F01FBA20BD0FB6FD
:10492000F894FA9AF99A0FBE08950396272F0E94D9
:1049300084240E948324252F0E948424242F0C94F5
:1049400084240196272F0E9484240C948324DC0164
:10495000CB01FC01F999FECF06C0F2BDE1BDF89A8A
:10496000319600B40D9241505040B8F70895F89434
:10497000FFCFC110E9108C12E9108C121C113D11EF
:104980008C123B12481298159C158D159415A01584
:10499000A415A8153417341783178317AD17C71735
:1049A00067176717CB173C184C184C188216A716B8
:1049B000AE16B316B816BD16C216C716CC16D1164B
:1049C000D616DB16DE16E316E616EF14E916EF141C
:1049D000EC16EF16EF14E5155A16ED15B715BB15C5
:1049E000F115BF15F5150116CB155316CF15051684
:1049F000D31509163116D7150D163816DD151316F1
:104A00001B16C315F915C715FD15E1151716271641
:104A100041165116B115E9156116D521D9211E226D
:104A200040224B225622592259225922E021E021CC
:104A3000D322D622D922FF222123242326234B232B
:104A4000D704A90AA20A9B0A0112131415161718F3
:104A5000191A1B010201818283E200E900EA00B514
:104A600000B600B700CD008301CC008A019201940A
:104A7000012102230224022502260227022A02B370
:104A800000B4006F0070009F01CB019F02A002954F
:104A9000F5F6F7313332363597C6346694909192F5
:104AA0009300010202020206060609090909090922
:104AB0000F0F0F121212121212121212121C442293
:0E4AC0007B58013601BB00FC051506350600CB
:00000001FF
